{
  "contractName": "Animals",
  "abi": [
    {
      "constant": true,
      "inputs": [
        {
          "name": "interfaceId",
          "type": "bytes4"
        }
      ],
      "name": "supportsInterface",
      "outputs": [
        {
          "name": "",
          "type": "bool"
        }
      ],
      "payable": false,
      "stateMutability": "view",
      "type": "function"
    },
    {
      "constant": true,
      "inputs": [
        {
          "name": "",
          "type": "uint256"
        }
      ],
      "name": "_registerFighting",
      "outputs": [
        {
          "name": "peutcombattre",
          "type": "bool"
        },
        {
          "name": "level",
          "type": "uint256"
        },
        {
          "name": "nbVictoire",
          "type": "uint256"
        },
        {
          "name": "nbDefaite",
          "type": "uint256"
        }
      ],
      "payable": false,
      "stateMutability": "view",
      "type": "function"
    },
    {
      "constant": true,
      "inputs": [
        {
          "name": "tokenId",
          "type": "uint256"
        }
      ],
      "name": "getApproved",
      "outputs": [
        {
          "name": "",
          "type": "address"
        }
      ],
      "payable": false,
      "stateMutability": "view",
      "type": "function"
    },
    {
      "constant": false,
      "inputs": [
        {
          "name": "to",
          "type": "address"
        },
        {
          "name": "tokenId",
          "type": "uint256"
        }
      ],
      "name": "approve",
      "outputs": [],
      "payable": false,
      "stateMutability": "nonpayable",
      "type": "function"
    },
    {
      "constant": false,
      "inputs": [
        {
          "name": "account",
          "type": "address"
        }
      ],
      "name": "addWhitelisted",
      "outputs": [],
      "payable": false,
      "stateMutability": "nonpayable",
      "type": "function"
    },
    {
      "constant": true,
      "inputs": [
        {
          "name": "",
          "type": "uint256"
        }
      ],
      "name": "_registerProp",
      "outputs": [
        {
          "name": "account",
          "type": "address"
        },
        {
          "name": "nbPets",
          "type": "uint256"
        },
        {
          "name": "feuVert",
          "type": "bool"
        }
      ],
      "payable": false,
      "stateMutability": "view",
      "type": "function"
    },
    {
      "constant": false,
      "inputs": [
        {
          "name": "from",
          "type": "address"
        },
        {
          "name": "to",
          "type": "address"
        },
        {
          "name": "tokenId",
          "type": "uint256"
        }
      ],
      "name": "transferFrom",
      "outputs": [],
      "payable": false,
      "stateMutability": "nonpayable",
      "type": "function"
    },
    {
      "constant": false,
      "inputs": [
        {
          "name": "account",
          "type": "address"
        }
      ],
      "name": "removeWhitelisted",
      "outputs": [],
      "payable": false,
      "stateMutability": "nonpayable",
      "type": "function"
    },
    {
      "constant": true,
      "inputs": [],
      "name": "beneficiary",
      "outputs": [
        {
          "name": "",
          "type": "address"
        }
      ],
      "payable": false,
      "stateMutability": "view",
      "type": "function"
    },
    {
      "constant": true,
      "inputs": [
        {
          "name": "account",
          "type": "address"
        }
      ],
      "name": "isWhitelisted",
      "outputs": [
        {
          "name": "",
          "type": "bool"
        }
      ],
      "payable": false,
      "stateMutability": "view",
      "type": "function"
    },
    {
      "constant": false,
      "inputs": [
        {
          "name": "from",
          "type": "address"
        },
        {
          "name": "to",
          "type": "address"
        },
        {
          "name": "tokenId",
          "type": "uint256"
        }
      ],
      "name": "safeTransferFrom",
      "outputs": [],
      "payable": false,
      "stateMutability": "nonpayable",
      "type": "function"
    },
    {
      "constant": true,
      "inputs": [],
      "name": "auctionEndTime",
      "outputs": [
        {
          "name": "",
          "type": "uint256"
        }
      ],
      "payable": false,
      "stateMutability": "view",
      "type": "function"
    },
    {
      "constant": false,
      "inputs": [],
      "name": "renounceWhitelistAdmin",
      "outputs": [],
      "payable": false,
      "stateMutability": "nonpayable",
      "type": "function"
    },
    {
      "constant": true,
      "inputs": [
        {
          "name": "tokenId",
          "type": "uint256"
        }
      ],
      "name": "ownerOf",
      "outputs": [
        {
          "name": "",
          "type": "address"
        }
      ],
      "payable": false,
      "stateMutability": "view",
      "type": "function"
    },
    {
      "constant": true,
      "inputs": [
        {
          "name": "owner",
          "type": "address"
        }
      ],
      "name": "balanceOf",
      "outputs": [
        {
          "name": "",
          "type": "uint256"
        }
      ],
      "payable": false,
      "stateMutability": "view",
      "type": "function"
    },
    {
      "constant": false,
      "inputs": [
        {
          "name": "account",
          "type": "address"
        }
      ],
      "name": "addWhitelistAdmin",
      "outputs": [],
      "payable": false,
      "stateMutability": "nonpayable",
      "type": "function"
    },
    {
      "constant": true,
      "inputs": [],
      "name": "nextTokenId",
      "outputs": [
        {
          "name": "",
          "type": "uint256"
        }
      ],
      "payable": false,
      "stateMutability": "view",
      "type": "function"
    },
    {
      "constant": true,
      "inputs": [],
      "name": "owner",
      "outputs": [
        {
          "name": "",
          "type": "address"
        }
      ],
      "payable": false,
      "stateMutability": "view",
      "type": "function"
    },
    {
      "constant": true,
      "inputs": [],
      "name": "highestBidder",
      "outputs": [
        {
          "name": "",
          "type": "address"
        }
      ],
      "payable": false,
      "stateMutability": "view",
      "type": "function"
    },
    {
      "constant": false,
      "inputs": [
        {
          "name": "to",
          "type": "address"
        },
        {
          "name": "approved",
          "type": "bool"
        }
      ],
      "name": "setApprovalForAll",
      "outputs": [],
      "payable": false,
      "stateMutability": "nonpayable",
      "type": "function"
    },
    {
      "constant": true,
      "inputs": [
        {
          "name": "",
          "type": "uint256"
        }
      ],
      "name": "_registerGenes",
      "outputs": [
        {
          "name": "color",
          "type": "string"
        },
        {
          "name": "fur",
          "type": "string"
        },
        {
          "name": "eyes",
          "type": "string"
        }
      ],
      "payable": false,
      "stateMutability": "view",
      "type": "function"
    },
    {
      "constant": false,
      "inputs": [
        {
          "name": "from",
          "type": "address"
        },
        {
          "name": "to",
          "type": "address"
        },
        {
          "name": "tokenId",
          "type": "uint256"
        },
        {
          "name": "_data",
          "type": "bytes"
        }
      ],
      "name": "safeTransferFrom",
      "outputs": [],
      "payable": false,
      "stateMutability": "nonpayable",
      "type": "function"
    },
    {
      "constant": true,
      "inputs": [
        {
          "name": "account",
          "type": "address"
        }
      ],
      "name": "isWhitelistAdmin",
      "outputs": [
        {
          "name": "",
          "type": "bool"
        }
      ],
      "payable": false,
      "stateMutability": "view",
      "type": "function"
    },
    {
      "constant": true,
      "inputs": [
        {
          "name": "",
          "type": "uint256"
        }
      ],
      "name": "_registerSex",
      "outputs": [
        {
          "name": "sex",
          "type": "bool"
        }
      ],
      "payable": false,
      "stateMutability": "view",
      "type": "function"
    },
    {
      "constant": true,
      "inputs": [],
      "name": "biddingTime",
      "outputs": [
        {
          "name": "",
          "type": "uint256"
        }
      ],
      "payable": false,
      "stateMutability": "view",
      "type": "function"
    },
    {
      "constant": true,
      "inputs": [],
      "name": "highestBid",
      "outputs": [
        {
          "name": "",
          "type": "uint256"
        }
      ],
      "payable": false,
      "stateMutability": "view",
      "type": "function"
    },
    {
      "constant": false,
      "inputs": [],
      "name": "renounceWhitelisted",
      "outputs": [],
      "payable": false,
      "stateMutability": "nonpayable",
      "type": "function"
    },
    {
      "constant": true,
      "inputs": [
        {
          "name": "",
          "type": "uint256"
        }
      ],
      "name": "_registerPet",
      "outputs": [
        {
          "name": "name",
          "type": "string"
        },
        {
          "name": "race",
          "type": "string"
        },
        {
          "name": "espece",
          "type": "string"
        },
        {
          "name": "age",
          "type": "uint256"
        },
        {
          "name": "horny",
          "type": "bool"
        },
        {
          "name": "proprietaire",
          "type": "address"
        }
      ],
      "payable": false,
      "stateMutability": "view",
      "type": "function"
    },
    {
      "constant": true,
      "inputs": [
        {
          "name": "owner",
          "type": "address"
        },
        {
          "name": "operator",
          "type": "address"
        }
      ],
      "name": "isApprovedForAll",
      "outputs": [
        {
          "name": "",
          "type": "bool"
        }
      ],
      "payable": false,
      "stateMutability": "view",
      "type": "function"
    },
    {
      "inputs": [],
      "payable": false,
      "stateMutability": "nonpayable",
      "type": "constructor"
    },
    {
      "anonymous": false,
      "inputs": [
        {
          "indexed": true,
          "name": "account",
          "type": "address"
        }
      ],
      "name": "BreederRemoved",
      "type": "event"
    },
    {
      "anonymous": false,
      "inputs": [
        {
          "indexed": true,
          "name": "account",
          "type": "address"
        }
      ],
      "name": "BreederAdded",
      "type": "event"
    },
    {
      "anonymous": false,
      "inputs": [
        {
          "indexed": true,
          "name": "account",
          "type": "address"
        }
      ],
      "name": "PetDied",
      "type": "event"
    },
    {
      "anonymous": false,
      "inputs": [
        {
          "indexed": false,
          "name": "bidder",
          "type": "address"
        },
        {
          "indexed": false,
          "name": "amount",
          "type": "uint256"
        }
      ],
      "name": "HighestBidIncreased",
      "type": "event"
    },
    {
      "anonymous": false,
      "inputs": [
        {
          "indexed": false,
          "name": "winner",
          "type": "address"
        },
        {
          "indexed": false,
          "name": "amount",
          "type": "uint256"
        }
      ],
      "name": "AuctionEnded",
      "type": "event"
    },
    {
      "anonymous": false,
      "inputs": [
        {
          "indexed": true,
          "name": "account",
          "type": "address"
        }
      ],
      "name": "WhitelistedAdded",
      "type": "event"
    },
    {
      "anonymous": false,
      "inputs": [
        {
          "indexed": true,
          "name": "account",
          "type": "address"
        }
      ],
      "name": "WhitelistedRemoved",
      "type": "event"
    },
    {
      "anonymous": false,
      "inputs": [
        {
          "indexed": true,
          "name": "account",
          "type": "address"
        }
      ],
      "name": "WhitelistAdminAdded",
      "type": "event"
    },
    {
      "anonymous": false,
      "inputs": [
        {
          "indexed": true,
          "name": "account",
          "type": "address"
        }
      ],
      "name": "WhitelistAdminRemoved",
      "type": "event"
    },
    {
      "anonymous": false,
      "inputs": [
        {
          "indexed": true,
          "name": "from",
          "type": "address"
        },
        {
          "indexed": true,
          "name": "to",
          "type": "address"
        },
        {
          "indexed": true,
          "name": "tokenId",
          "type": "uint256"
        }
      ],
      "name": "Transfer",
      "type": "event"
    },
    {
      "anonymous": false,
      "inputs": [
        {
          "indexed": true,
          "name": "owner",
          "type": "address"
        },
        {
          "indexed": true,
          "name": "approved",
          "type": "address"
        },
        {
          "indexed": true,
          "name": "tokenId",
          "type": "uint256"
        }
      ],
      "name": "Approval",
      "type": "event"
    },
    {
      "anonymous": false,
      "inputs": [
        {
          "indexed": true,
          "name": "owner",
          "type": "address"
        },
        {
          "indexed": true,
          "name": "operator",
          "type": "address"
        },
        {
          "indexed": false,
          "name": "approved",
          "type": "bool"
        }
      ],
      "name": "ApprovalForAll",
      "type": "event"
    },
    {
      "constant": false,
      "inputs": [
        {
          "name": "account",
          "type": "address"
        }
      ],
      "name": "addBreeder",
      "outputs": [],
      "payable": false,
      "stateMutability": "nonpayable",
      "type": "function"
    },
    {
      "constant": false,
      "inputs": [
        {
          "name": "account",
          "type": "address"
        }
      ],
      "name": "removeBreeder",
      "outputs": [],
      "payable": false,
      "stateMutability": "nonpayable",
      "type": "function"
    },
    {
      "constant": false,
      "inputs": [
        {
          "name": "_name",
          "type": "string"
        },
        {
          "name": "_race",
          "type": "string"
        },
        {
          "name": "_espece",
          "type": "string"
        }
      ],
      "name": "addPet",
      "outputs": [
        {
          "name": "",
          "type": "bool"
        }
      ],
      "payable": false,
      "stateMutability": "nonpayable",
      "type": "function"
    },
    {
      "constant": false,
      "inputs": [
        {
          "name": "proprio",
          "type": "address"
        },
        {
          "name": "tokenId",
          "type": "uint256"
        }
      ],
      "name": "deadPet",
      "outputs": [],
      "payable": false,
      "stateMutability": "nonpayable",
      "type": "function"
    },
    {
      "constant": false,
      "inputs": [
        {
          "name": "_tokenId",
          "type": "uint256"
        }
      ],
      "name": "setHorny",
      "outputs": [
        {
          "name": "",
          "type": "bool"
        }
      ],
      "payable": false,
      "stateMutability": "nonpayable",
      "type": "function"
    },
    {
      "constant": false,
      "inputs": [
        {
          "name": "_tokenId",
          "type": "uint256"
        }
      ],
      "name": "setFeuvert",
      "outputs": [
        {
          "name": "",
          "type": "bool"
        }
      ],
      "payable": false,
      "stateMutability": "nonpayable",
      "type": "function"
    },
    {
      "constant": false,
      "inputs": [
        {
          "name": "prop1",
          "type": "address"
        },
        {
          "name": "prop2",
          "type": "address"
        },
        {
          "name": "_tokenId1",
          "type": "uint256"
        },
        {
          "name": "_tokenId2",
          "type": "uint256"
        },
        {
          "name": "_name",
          "type": "string"
        },
        {
          "name": "_race",
          "type": "string"
        },
        {
          "name": "_sex",
          "type": "string"
        },
        {
          "name": "_espece",
          "type": "string"
        }
      ],
      "name": "breedAnimal",
      "outputs": [
        {
          "name": "",
          "type": "bool"
        }
      ],
      "payable": false,
      "stateMutability": "nonpayable",
      "type": "function"
    },
    {
      "constant": false,
      "inputs": [],
      "name": "auctionEnd",
      "outputs": [],
      "payable": false,
      "stateMutability": "nonpayable",
      "type": "function"
    },
    {
      "constant": false,
      "inputs": [
        {
          "name": "tokenId",
          "type": "uint256"
        },
        {
          "name": "bid",
          "type": "uint256"
        }
      ],
      "name": "betOnAuction",
      "outputs": [],
      "payable": false,
      "stateMutability": "nonpayable",
      "type": "function"
    }
  ],
  "bytecode": "0x60806040523480156200001157600080fd5b506200004f6301ffc9a77c010000000000000000000000000000000000000000000000000000000002620001f8640100000000026401000000009004565b6200008c6380ac58cd7c010000000000000000000000000000000000000000000000000000000002620001f8640100000000026401000000009004565b620000a633620002b6640100000000026401000000009004565b7381d73743e4d31eba453343264d6ced820bb436f1600760006101000a81548173ffffffffffffffffffffffffffffffffffffffff021916908373ffffffffffffffffffffffffffffffffffffffff1602179055506000600881905550600a8090805460018160011615610100020316600290046200012792919062000915565b506000601060006101000a81548160ff021916908315150217905550620001717381d73743e4d31eba453343264d6ced820bb436f162000320640100000000026401000000009004565b6200019f73335ad6c6977115cde1033e86950656a9871c0a2562000320640100000000026401000000009004565b620001f2600760009054906101000a900473ffffffffffffffffffffffffffffffffffffffff1673bdb575cc6762080a4c262718cf3645e9b5e7278b600362000363640100000000026401000000009004565b620009cb565b63ffffffff7c010000000000000000000000000000000000000000000000000000000002817bffffffffffffffffffffffffffffffffffffffffffffffffffffffff1916141515156200024a57600080fd5b6001600080837bffffffffffffffffffffffffffffffffffffffffffffffffffffffff19167bffffffffffffffffffffffffffffffffffffffffffffffffffffffff1916815260200190815260200160002060006101000a81548160ff02191690831515021790555050565b620002da8160056200057a6401000000000262003583179091906401000000009004565b8073ffffffffffffffffffffffffffffffffffffffff167f22380c05984257a1cb900161c713dd71d39e74820f1aea43bd3f1bdd2096129960405160405180910390a250565b6200033a336200063d640100000000026401000000009004565b15156200034657600080fd5b62000360816200066a640100000000026401000000009004565b50565b8273ffffffffffffffffffffffffffffffffffffffff166200039482620006d4640100000000026401000000009004565b73ffffffffffffffffffffffffffffffffffffffff16141515620003b757600080fd5b600073ffffffffffffffffffffffffffffffffffffffff168273ffffffffffffffffffffffffffffffffffffffff1614151515620003f457600080fd5b6200040e8162000753640100000000026401000000009004565b6200046b600360008573ffffffffffffffffffffffffffffffffffffffff1673ffffffffffffffffffffffffffffffffffffffff168152602001908152602001600020620008146401000000000262003fe2176401000000009004565b620004c8600360008473ffffffffffffffffffffffffffffffffffffffff1673ffffffffffffffffffffffffffffffffffffffff168152602001908152602001600020620008476401000000000262004005176401000000009004565b816001600083815260200190815260200160002060006101000a81548173ffffffffffffffffffffffffffffffffffffffff021916908373ffffffffffffffffffffffffffffffffffffffff160217905550808273ffffffffffffffffffffffffffffffffffffffff168473ffffffffffffffffffffffffffffffffffffffff167fddf252ad1be2c89b69c2b068fc378daa952ba7f163c4a11628f55a4df523b3ef60405160405180910390a4505050565b600073ffffffffffffffffffffffffffffffffffffffff168173ffffffffffffffffffffffffffffffffffffffff1614151515620005b757600080fd5b620005d282826200085d640100000000026401000000009004565b151515620005df57600080fd5b60018260000160008373ffffffffffffffffffffffffffffffffffffffff1673ffffffffffffffffffffffffffffffffffffffff16815260200190815260200160002060006101000a81548160ff0219169083151502179055505050565b6000620006638260056200085d64010000000002620039b5179091906401000000009004565b9050919050565b6200068e8160066200057a6401000000000262003583179091906401000000009004565b8073ffffffffffffffffffffffffffffffffffffffff167fee1504a83b6d4a361f4c1dc78ab59bfa30d6a3b6612c403e86bb01ef2984295f60405160405180910390a250565b6000806001600084815260200190815260200160002060009054906101000a900473ffffffffffffffffffffffffffffffffffffffff169050600073ffffffffffffffffffffffffffffffffffffffff168173ffffffffffffffffffffffffffffffffffffffff16141515156200074a57600080fd5b80915050919050565b600073ffffffffffffffffffffffffffffffffffffffff166002600083815260200190815260200160002060009054906101000a900473ffffffffffffffffffffffffffffffffffffffff1673ffffffffffffffffffffffffffffffffffffffff16141515620008115760006002600083815260200190815260200160002060006101000a81548173ffffffffffffffffffffffffffffffffffffffff021916908373ffffffffffffffffffffffffffffffffffffffff1602179055505b50565b6200083c60018260000154620008f2640100000000026200402e179091906401000000009004565b816000018190555050565b6001816000016000828254019250508190555050565b60008073ffffffffffffffffffffffffffffffffffffffff168273ffffffffffffffffffffffffffffffffffffffff16141515156200089b57600080fd5b8260000160008373ffffffffffffffffffffffffffffffffffffffff1673ffffffffffffffffffffffffffffffffffffffff16815260200190815260200160002060009054906101000a900460ff16905092915050565b60008282111515156200090457600080fd5b600082840390508091505092915050565b828054600181600116156101000203166002900490600052602060002090601f016020900481019282601f1062000950578054855562000990565b828001600101855582156200099057600052602060002091601f016020900482015b828111156200098f57825482559160010191906001019062000972565b5b5090506200099f9190620009a3565b5090565b620009c891905b80821115620009c4576000816000905550600101620009aa565b5090565b90565b6141a880620009db6000396000f3fe6080604052600436106101d8576000357c0100000000000000000000000000000000000000000000000000000000900463ffffffff16806301ffc9a7146101dd578063052b794d1461024f57806307c4bdeb146102b7578063081812fc14610308578063095ea7b31461038357806310154bad146103de5780631267331f1461042f5780631b1dfd39146104bc5780631b5f226c1461050f57806323b872dd14610809578063291d9549146108845780632a24f46c146108d557806338af3eed146108ec5780633af32abf1461094357806342842e0e146109ac57806346456c6614610a275780634b449cba14610a785780634c5a628c14610aa35780634d4a7a8214610aba578063634cceff14610cc85780636352211e14610d2357806370a0823114610d9e5780637362d9c814610e0357806375794a3c14610e545780638da5cb5b14610e7f57806391f9015714610ed6578063a22cb46514610f2d578063a97fd88814610f8a578063b88d4fde14611116578063bb5f747b14611228578063c2022e9214611291578063cdad18d7146112d6578063d074a38d14611329578063d57bde7914611354578063d6cd94731461137f578063df393bc114611396578063e5bd826514611567578063e985e9c5146115ba575b600080fd5b3480156101e957600080fd5b506102356004803603602081101561020057600080fd5b8101908080357bffffffffffffffffffffffffffffffffffffffffffffffffffffffff19169060200190929190505050611643565b604051808215151515815260200191505060405180910390f35b34801561025b57600080fd5b506102886004803603602081101561027257600080fd5b81019080803590602001909291905050506116aa565b604051808515151515815260200184815260200183815260200182815260200194505050505060405180910390f35b3480156102c357600080fd5b50610306600480360360208110156102da57600080fd5b81019080803573ffffffffffffffffffffffffffffffffffffffff1690602001909291905050506116e7565b005b34801561031457600080fd5b506103416004803603602081101561032b57600080fd5b81019080803590602001909291905050506117ba565b604051808273ffffffffffffffffffffffffffffffffffffffff1673ffffffffffffffffffffffffffffffffffffffff16815260200191505060405180910390f35b34801561038f57600080fd5b506103dc600480360360408110156103a657600080fd5b81019080803573ffffffffffffffffffffffffffffffffffffffff1690602001909291908035906020019092919050505061180b565b005b3480156103ea57600080fd5b5061042d6004803603602081101561040157600080fd5b81019080803573ffffffffffffffffffffffffffffffffffffffff169060200190929190505050611950565b005b34801561043b57600080fd5b506104686004803603602081101561045257600080fd5b8101908080359060200190929190505050611970565b604051808473ffffffffffffffffffffffffffffffffffffffff1673ffffffffffffffffffffffffffffffffffffffff16815260200183815260200182151515158152602001935050505060405180910390f35b3480156104c857600080fd5b506104f5600480360360208110156104df57600080fd5b81019080803590602001909291905050506119c7565b604051808215151515815260200191505060405180910390f35b34801561051b57600080fd5b506107ef600480360361010081101561053357600080fd5b81019080803573ffffffffffffffffffffffffffffffffffffffff169060200190929190803573ffffffffffffffffffffffffffffffffffffffff1690602001909291908035906020019092919080359060200190929190803590602001906401000000008111156105a457600080fd5b8201836020820111156105b657600080fd5b803590602001918460018302840111640100000000831117156105d857600080fd5b91908080601f016020809104026020016040519081016040528093929190818152602001838380828437600081840152601f19601f8201169050808301925050505050505091929192908035906020019064010000000081111561063b57600080fd5b82018360208201111561064d57600080fd5b8035906020019184600183028401116401000000008311171561066f57600080fd5b91908080601f016020809104026020016040519081016040528093929190818152602001838380828437600081840152601f19601f820116905080830192505050505050509192919290803590602001906401000000008111156106d257600080fd5b8201836020820111156106e457600080fd5b8035906020019184600183028401116401000000008311171561070657600080fd5b91908080601f016020809104026020016040519081016040528093929190818152602001838380828437600081840152601f19601f8201169050808301925050505050505091929192908035906020019064010000000081111561076957600080fd5b82018360208201111561077b57600080fd5b8035906020019184600183028401116401000000008311171561079d57600080fd5b91908080601f016020809104026020016040519081016040528093929190818152602001838380828437600081840152601f19601f820116905080830192505050505050509192919290505050611acb565b604051808215151515815260200191505060405180910390f35b34801561081557600080fd5b506108826004803603606081101561082c57600080fd5b81019080803573ffffffffffffffffffffffffffffffffffffffff169060200190929190803573ffffffffffffffffffffffffffffffffffffffff169060200190929190803590602001909291905050506122b3565b005b34801561089057600080fd5b506108d3600480360360208110156108a757600080fd5b81019080803573ffffffffffffffffffffffffffffffffffffffff1690602001909291905050506122d8565b005b3480156108e157600080fd5b506108ea6122f8565b005b3480156108f857600080fd5b5061090161252c565b604051808273ffffffffffffffffffffffffffffffffffffffff1673ffffffffffffffffffffffffffffffffffffffff16815260200191505060405180910390f35b34801561094f57600080fd5b506109926004803603602081101561096657600080fd5b81019080803573ffffffffffffffffffffffffffffffffffffffff169060200190929190505050612552565b604051808215151515815260200191505060405180910390f35b3480156109b857600080fd5b50610a25600480360360608110156109cf57600080fd5b81019080803573ffffffffffffffffffffffffffffffffffffffff169060200190929190803573ffffffffffffffffffffffffffffffffffffffff1690602001909291908035906020019092919050505061256f565b005b348015610a3357600080fd5b50610a7660048036036020811015610a4a57600080fd5b81019080803573ffffffffffffffffffffffffffffffffffffffff169060200190929190505050612590565b005b348015610a8457600080fd5b50610a8d612663565b6040518082815260200191505060405180910390f35b348015610aaf57600080fd5b50610ab8612669565b005b348015610ac657600080fd5b50610cae60048036036060811015610add57600080fd5b8101908080359060200190640100000000811115610afa57600080fd5b820183602082011115610b0c57600080fd5b80359060200191846001830284011164010000000083111715610b2e57600080fd5b91908080601f016020809104026020016040519081016040528093929190818152602001838380828437600081840152601f19601f82011690508083019250505050505050919291929080359060200190640100000000811115610b9157600080fd5b820183602082011115610ba357600080fd5b80359060200191846001830284011164010000000083111715610bc557600080fd5b91908080601f016020809104026020016040519081016040528093929190818152602001838380828437600081840152601f19601f82011690508083019250505050505050919291929080359060200190640100000000811115610c2857600080fd5b820183602082011115610c3a57600080fd5b80359060200191846001830284011164010000000083111715610c5c57600080fd5b91908080601f016020809104026020016040519081016040528093929190818152602001838380828437600081840152601f19601f820116905080830192505050505050509192919290505050612674565b604051808215151515815260200191505060405180910390f35b348015610cd457600080fd5b50610d2160048036036040811015610ceb57600080fd5b81019080803573ffffffffffffffffffffffffffffffffffffffff1690602001909291908035906020019092919050505061284c565b005b348015610d2f57600080fd5b50610d5c60048036036020811015610d4657600080fd5b81019080803590602001909291905050506128e1565b604051808273ffffffffffffffffffffffffffffffffffffffff1673ffffffffffffffffffffffffffffffffffffffff16815260200191505060405180910390f35b348015610daa57600080fd5b50610ded60048036036020811015610dc157600080fd5b81019080803573ffffffffffffffffffffffffffffffffffffffff16906020019092919050505061295f565b6040518082815260200191505060405180910390f35b348015610e0f57600080fd5b50610e5260048036036020811015610e2657600080fd5b81019080803573ffffffffffffffffffffffffffffffffffffffff1690602001909291905050506129ea565b005b348015610e6057600080fd5b50610e69612a0a565b6040518082815260200191505060405180910390f35b348015610e8b57600080fd5b50610e94612a10565b604051808273ffffffffffffffffffffffffffffffffffffffff1673ffffffffffffffffffffffffffffffffffffffff16815260200191505060405180910390f35b348015610ee257600080fd5b50610eeb612a36565b604051808273ffffffffffffffffffffffffffffffffffffffff1673ffffffffffffffffffffffffffffffffffffffff16815260200191505060405180910390f35b348015610f3957600080fd5b50610f8860048036036040811015610f5057600080fd5b81019080803573ffffffffffffffffffffffffffffffffffffffff169060200190929190803515159060200190929190505050612a5c565b005b348015610f9657600080fd5b50610fc360048036036020811015610fad57600080fd5b8101908080359060200190929190505050612b98565b60405180806020018060200180602001848103845287818151815260200191508051906020019080838360005b8381101561100b578082015181840152602081019050610ff0565b50505050905090810190601f1680156110385780820380516001836020036101000a031916815260200191505b50848103835286818151815260200191508051906020019080838360005b83811015611071578082015181840152602081019050611056565b50505050905090810190601f16801561109e5780820380516001836020036101000a031916815260200191505b50848103825285818151815260200191508051906020019080838360005b838110156110d75780820151818401526020810190506110bc565b50505050905090810190601f1680156111045780820380516001836020036101000a031916815260200191505b50965050505050505060405180910390f35b34801561112257600080fd5b506112266004803603608081101561113957600080fd5b81019080803573ffffffffffffffffffffffffffffffffffffffff169060200190929190803573ffffffffffffffffffffffffffffffffffffffff16906020019092919080359060200190929190803590602001906401000000008111156111a057600080fd5b8201836020820111156111b257600080fd5b803590602001918460018302840111640100000000831117156111d457600080fd5b91908080601f016020809104026020016040519081016040528093929190818152602001838380828437600081840152601f19601f820116905080830192505050505050509192919290505050612d8a565b005b34801561123457600080fd5b506112776004803603602081101561124b57600080fd5b81019080803573ffffffffffffffffffffffffffffffffffffffff169060200190929190505050612db2565b604051808215151515815260200191505060405180910390f35b34801561129d57600080fd5b506112d4600480360360408110156112b457600080fd5b810190808035906020019092919080359060200190929190505050612dcf565b005b3480156112e257600080fd5b5061130f600480360360208110156112f957600080fd5b8101908080359060200190929190505050613065565b604051808215151515815260200191505060405180910390f35b34801561133557600080fd5b5061133e613090565b6040518082815260200191505060405180910390f35b34801561136057600080fd5b50611369613096565b6040518082815260200191505060405180910390f35b34801561138b57600080fd5b5061139461309c565b005b3480156113a257600080fd5b506113cf600480360360208110156113b957600080fd5b81019080803590602001909291905050506130a7565b60405180806020018060200180602001878152602001861515151581526020018573ffffffffffffffffffffffffffffffffffffffff1673ffffffffffffffffffffffffffffffffffffffff16815260200184810384528a818151815260200191508051906020019080838360005b8381101561145957808201518184015260208101905061143e565b50505050905090810190601f1680156114865780820380516001836020036101000a031916815260200191505b50848103835289818151815260200191508051906020019080838360005b838110156114bf5780820151818401526020810190506114a4565b50505050905090810190601f1680156114ec5780820380516001836020036101000a031916815260200191505b50848103825288818151815260200191508051906020019080838360005b8381101561152557808201518184015260208101905061150a565b50505050905090810190601f1680156115525780820380516001836020036101000a031916815260200191505b50995050505050505050505060405180910390f35b34801561157357600080fd5b506115a06004803603602081101561158a57600080fd5b81019080803590602001909291905050506132d8565b604051808215151515815260200191505060405180910390f35b3480156115c657600080fd5b50611629600480360360408110156115dd57600080fd5b81019080803573ffffffffffffffffffffffffffffffffffffffff169060200190929190803573ffffffffffffffffffffffffffffffffffffffff1690602001909291905050506134ef565b604051808215151515815260200191505060405180910390f35b6000806000837bffffffffffffffffffffffffffffffffffffffffffffffffffffffff19167bffffffffffffffffffffffffffffffffffffffffffffffffffffffff1916815260200190815260200160002060009054906101000a900460ff169050919050565b60156020528060005260406000206000915090508060000160009054906101000a900460ff16908060010154908060020154908060030154905084565b600760009054906101000a900473ffffffffffffffffffffffffffffffffffffffff163373ffffffffffffffffffffffffffffffffffffffff168173ffffffffffffffffffffffffffffffffffffffff1614151561174457600080fd5b6001151561175183612552565b151514151561175f57600080fd5b61177382601261358390919063ffffffff16565b8173ffffffffffffffffffffffffffffffffffffffff167f55bd00b3e7d4e854215e58613765da860f485363fcdf5bd6bdbc97fe2b66847a60405160405180910390a25050565b60006117c582613633565b15156117d057600080fd5b6002600083815260200190815260200160002060009054906101000a900473ffffffffffffffffffffffffffffffffffffffff169050919050565b6000611816826128e1565b90508073ffffffffffffffffffffffffffffffffffffffff168373ffffffffffffffffffffffffffffffffffffffff161415151561185357600080fd5b8073ffffffffffffffffffffffffffffffffffffffff163373ffffffffffffffffffffffffffffffffffffffff161480611893575061189281336134ef565b5b151561189e57600080fd5b826002600084815260200190815260200160002060006101000a81548173ffffffffffffffffffffffffffffffffffffffff021916908373ffffffffffffffffffffffffffffffffffffffff160217905550818373ffffffffffffffffffffffffffffffffffffffff168273ffffffffffffffffffffffffffffffffffffffff167f8c5be1e5ebec7d5bd14f71427d1e84f3dd0314c0f7b2291e5b200ac8c7c3b92560405160405180910390a4505050565b61195933612db2565b151561196457600080fd5b61196d816136a5565b50565b60186020528060005260406000206000915090508060000160009054906101000a900473ffffffffffffffffffffffffffffffffffffffff16908060010154908060020160009054906101000a900460ff16905083565b60008073ffffffffffffffffffffffffffffffffffffffff163373ffffffffffffffffffffffffffffffffffffffff1614151515611a0457600080fd5b3373ffffffffffffffffffffffffffffffffffffffff166013600084815260200190815260200160002060009054906101000a900473ffffffffffffffffffffffffffffffffffffffff1673ffffffffffffffffffffffffffffffffffffffff161415611ac55760016018600084815260200190815260200160002060020160006101000a81548160ff0219169083151502179055506018600083815260200190815260200160002060020160009054906101000a900460ff169050611ac6565b5b919050565b60008873ffffffffffffffffffffffffffffffffffffffff166013600089815260200190815260200160002060009054906101000a900473ffffffffffffffffffffffffffffffffffffffff1673ffffffffffffffffffffffffffffffffffffffff16141515611bc9576040517f08c379a000000000000000000000000000000000000000000000000000000000815260040180806020018281038252602b8152602001807f766f757320646576657a20c3aa7472652070726f70726965746169726520646581526020017f2063657420616e696d616c00000000000000000000000000000000000000000081525060400191505060405180910390fd5b8773ffffffffffffffffffffffffffffffffffffffff166013600088815260200190815260200160002060009054906101000a900473ffffffffffffffffffffffffffffffffffffffff1673ffffffffffffffffffffffffffffffffffffffff16141515611cc5576040517f08c379a000000000000000000000000000000000000000000000000000000000815260040180806020018281038252602b8152602001807f766f757320646576657a20c3aa7472652070726f70726965746169726520646581526020017f2063657420616e696d616c00000000000000000000000000000000000000000081525060400191505060405180910390fd5b600115156014600089815260200190815260200160002060040160009054906101000a900460ff161515148015611d235750600115156014600088815260200190815260200160002060040160009054906101000a900460ff161515145b8015611d565750600115156018600089815260200190815260200160002060020160009054906101000a900460ff161515145b8015611d895750600115156018600088815260200190815260200160002060020160009054906101000a900460ff161515145b156122a6578873ffffffffffffffffffffffffffffffffffffffff163373ffffffffffffffffffffffffffffffffffffffff161480611df357508773ffffffffffffffffffffffffffffffffffffffff163373ffffffffffffffffffffffffffffffffffffffff16145b156122a5576016600088815260200190815260200160002060166000600854815260200190815260200160002060008201816000019080546001816001161561010002031660029004611e47929190614050565b5060018201816001019080546001816001161561010002031660029004611e6f929190614050565b5060028201816002019080546001816001161561010002031660029004611e97929190614050565b5090505061209c600a8054600181600116156101000203166002900480601f016020809104026020016040519081016040528092919081815260200182805460018160011615610100020316600290048015611f345780601f10611f0957610100808354040283529160200191611f34565b820191906000526020600020905b815481529060010190602001808311611f1757829003601f168201915b5050505050601460008a81526020019081526020016000206001018054600181600116156101000203166002900480601f016020809104026020016040519081016040528092919081815260200182805460018160011615610100020316600290048015611fe35780601f10611fb857610100808354040283529160200191611fe3565b820191906000526020600020905b815481529060010190602001808311611fc657829003601f168201915b5050505050601460008a81526020019081526020016000206002018054600181600116156101000203166002900480601f0160208091040260200160405190810160405280929190818152602001828054600181600116156101000203166002900480156120925780601f1061206757610100808354040283529160200191612092565b820191906000526020600020905b81548152906001019060200180831161207557829003601f168201915b5050505050612674565b5061229e600a8054600181600116156101000203166002900480601f0160208091040260200160405190810160405280929190818152602001828054600181600116156101000203166002900480156121365780601f1061210b57610100808354040283529160200191612136565b820191906000526020600020905b81548152906001019060200180831161211957829003601f168201915b5050505050601460008a81526020019081526020016000206001018054600181600116156101000203166002900480601f0160208091040260200160405190810160405280929190818152602001828054600181600116156101000203166002900480156121e55780601f106121ba576101008083540402835291602001916121e5565b820191906000526020600020905b8154815290600101906020018083116121c857829003601f168201915b5050505050601460008a81526020019081526020016000206002018054600181600116156101000203166002900480601f0160208091040260200160405190810160405280929190818152602001828054600181600116156101000203166002900480156122945780601f1061226957610100808354040283529160200191612294565b820191906000526020600020905b81548152906001019060200180831161227757829003601f168201915b5050505050612674565b90506122a7565b5b5b98975050505050505050565b6122bd33826136ff565b15156122c857600080fd5b6122d3838383613794565b505050565b6122e133612db2565b15156122ec57600080fd5b6122f58161395b565b50565b600c544210151515612372576040517f08c379a00000000000000000000000000000000000000000000000000000000081526004018080602001828103825260168152602001807f41756374696f6e206e6f742079657420656e6465642e0000000000000000000081525060200191505060405180910390fd5b601060009054906101000a900460ff1615151561241d576040517f08c379a00000000000000000000000000000000000000000000000000000000081526004018080602001828103825260238152602001807f61756374696f6e456e642068617320616c7265616479206265656e2063616c6c81526020017f65642e000000000000000000000000000000000000000000000000000000000081525060400191505060405180910390fd5b6001601060006101000a81548160ff0219169083151502179055507fdaec4582d5d9595688c8c98545fdd1c696d41c6aeaeb636737e84ed2f5c00eda600d60009054906101000a900473ffffffffffffffffffffffffffffffffffffffff16600e54604051808373ffffffffffffffffffffffffffffffffffffffff1673ffffffffffffffffffffffffffffffffffffffff1681526020018281526020019250505060405180910390a1600d60009054906101000a900473ffffffffffffffffffffffffffffffffffffffff16600b60006101000a81548173ffffffffffffffffffffffffffffffffffffffff021916908373ffffffffffffffffffffffffffffffffffffffff160217905550565b600b60009054906101000a900473ffffffffffffffffffffffffffffffffffffffff1681565b60006125688260066139b590919063ffffffff16565b9050919050565b61258b8383836020604051908101604052806000815250612d8a565b505050565b600760009054906101000a900473ffffffffffffffffffffffffffffffffffffffff163373ffffffffffffffffffffffffffffffffffffffff168173ffffffffffffffffffffffffffffffffffffffff161415156125ed57600080fd5b600115156125fa83612552565b151514151561260857600080fd5b61261c826012613a4990919063ffffffff16565b8173ffffffffffffffffffffffffffffffffffffffff167f2d5cebad2a7f0f074c4d2e6d56e39003468b1a87800ecce7ccc12827a47de0e660405160405180910390a25050565b600c5481565b61267233613af8565b565b60006001151561268333612552565b151514151561269157600080fd5b3360136000600854815260200190815260200160002060006101000a81548173ffffffffffffffffffffffffffffffffffffffff021916908373ffffffffffffffffffffffffffffffffffffffff1602179055503360146000600854815260200190815260200160002060040160016101000a81548173ffffffffffffffffffffffffffffffffffffffff021916908373ffffffffffffffffffffffffffffffffffffffff1602179055508360146000600854815260200190815260200160002060000190805190602001906127689291906140d7565b508260146000600854815260200190815260200160002060010190805190602001906127959291906140d7565b508160146000600854815260200190815260200160002060020190805190602001906127c29291906140d7565b506000601460006008548152602001908152602001600020600301819055503360136000600854815260200190815260200160002060006101000a81548173ffffffffffffffffffffffffffffffffffffffff021916908373ffffffffffffffffffffffffffffffffffffffff160217905550600160085401600881905550600190509392505050565b612878600760009054906101000a900473ffffffffffffffffffffffffffffffffffffffff1682613b52565b600760009054906101000a900473ffffffffffffffffffffffffffffffffffffffff1673ffffffffffffffffffffffffffffffffffffffff167f5691c23761c54f62406d00fa0c93278f1bab9e0ab38abee5ce86d2c33743819c60405160405180910390a25050565b6000806001600084815260200190815260200160002060009054906101000a900473ffffffffffffffffffffffffffffffffffffffff169050600073ffffffffffffffffffffffffffffffffffffffff168173ffffffffffffffffffffffffffffffffffffffff161415151561295657600080fd5b80915050919050565b60008073ffffffffffffffffffffffffffffffffffffffff168273ffffffffffffffffffffffffffffffffffffffff161415151561299c57600080fd5b6129e3600360008473ffffffffffffffffffffffffffffffffffffffff1673ffffffffffffffffffffffffffffffffffffffff168152602001908152602001600020613c97565b9050919050565b6129f333612db2565b15156129fe57600080fd5b612a0781613ca5565b50565b60085481565b600760009054906101000a900473ffffffffffffffffffffffffffffffffffffffff1681565b600d60009054906101000a900473ffffffffffffffffffffffffffffffffffffffff1681565b3373ffffffffffffffffffffffffffffffffffffffff168273ffffffffffffffffffffffffffffffffffffffff1614151515612a9757600080fd5b80600460003373ffffffffffffffffffffffffffffffffffffffff1673ffffffffffffffffffffffffffffffffffffffff16815260200190815260200160002060008473ffffffffffffffffffffffffffffffffffffffff1673ffffffffffffffffffffffffffffffffffffffff16815260200190815260200160002060006101000a81548160ff0219169083151502179055508173ffffffffffffffffffffffffffffffffffffffff163373ffffffffffffffffffffffffffffffffffffffff167f17307eab39ab6107e8899845ad3d59bd9653f200f220920489ca2b5937696c3183604051808215151515815260200191505060405180910390a35050565b6016602052806000526040600020600091509050806000018054600181600116156101000203166002900480601f016020809104026020016040519081016040528092919081815260200182805460018160011615610100020316600290048015612c445780601f10612c1957610100808354040283529160200191612c44565b820191906000526020600020905b815481529060010190602001808311612c2757829003601f168201915b505050505090806001018054600181600116156101000203166002900480601f016020809104026020016040519081016040528092919081815260200182805460018160011615610100020316600290048015612ce25780601f10612cb757610100808354040283529160200191612ce2565b820191906000526020600020905b815481529060010190602001808311612cc557829003601f168201915b505050505090806002018054600181600116156101000203166002900480601f016020809104026020016040519081016040528092919081815260200182805460018160011615610100020316600290048015612d805780601f10612d5557610100808354040283529160200191612d80565b820191906000526020600020905b815481529060010190602001808311612d6357829003601f168201915b5050505050905083565b612d958484846122b3565b612da184848484613cff565b1515612dac57600080fd5b50505050565b6000612dc88260056139b590919063ffffffff16565b9050919050565b3373ffffffffffffffffffffffffffffffffffffffff166013600084815260200190815260200160002060009054906101000a900473ffffffffffffffffffffffffffffffffffffffff1673ffffffffffffffffffffffffffffffffffffffff1614151515612e3d57600080fd5b600c544211151515612eb7576040517f08c379a00000000000000000000000000000000000000000000000000000000081526004018080602001828103825260168152602001807f41756374696f6e20616c726561647920656e6465642e0000000000000000000081525060200191505060405180910390fd5b600e5481111515612f30576040517f08c379a000000000000000000000000000000000000000000000000000000000815260040180806020018281038252601e8152602001807f546865726520616c7265616479206973206120686967686572206269642e000081525060200191505060405180910390fd5b6000600e54141515612fae57600e5460116000600d60009054906101000a900473ffffffffffffffffffffffffffffffffffffffff1673ffffffffffffffffffffffffffffffffffffffff1673ffffffffffffffffffffffffffffffffffffffff168152602001908152602001600020600082825401925050819055505b33600d60006101000a81548173ffffffffffffffffffffffffffffffffffffffff021916908373ffffffffffffffffffffffffffffffffffffffff16021790555080600e819055507ff4757a49b326036464bec6fe419a4ae38c8a02ce3e68bf0809674f6aab8ad3003382604051808373ffffffffffffffffffffffffffffffffffffffff1673ffffffffffffffffffffffffffffffffffffffff1681526020018281526020019250505060405180910390a15050565b60176020528060005260406000206000915090508060000160009054906101000a900460ff16905081565b600f5481565b600e5481565b6130a53361395b565b565b6014602052806000526040600020600091509050806000018054600181600116156101000203166002900480601f0160208091040260200160405190810160405280929190818152602001828054600181600116156101000203166002900480156131535780601f1061312857610100808354040283529160200191613153565b820191906000526020600020905b81548152906001019060200180831161313657829003601f168201915b505050505090806001018054600181600116156101000203166002900480601f0160208091040260200160405190810160405280929190818152602001828054600181600116156101000203166002900480156131f15780601f106131c6576101008083540402835291602001916131f1565b820191906000526020600020905b8154815290600101906020018083116131d457829003601f168201915b505050505090806002018054600181600116156101000203166002900480601f01602080910402602001604051908101604052809291908181526020018280546001816001161561010002031660029004801561328f5780601f106132645761010080835404028352916020019161328f565b820191906000526020600020905b81548152906001019060200180831161327257829003601f168201915b5050505050908060030154908060040160009054906101000a900460ff16908060040160019054906101000a900473ffffffffffffffffffffffffffffffffffffffff16905086565b60008073ffffffffffffffffffffffffffffffffffffffff163373ffffffffffffffffffffffffffffffffffffffff161415151561331557600080fd5b6001151561332233612552565b1515141515613399576040517f08c379a000000000000000000000000000000000000000000000000000000000815260040180806020018281038252601c8152602001807f766f7573206e27c3aa746573207061732077686974656c697374c3a90000000081525060200191505060405180910390fd5b3373ffffffffffffffffffffffffffffffffffffffff166013600084815260200190815260200160002060009054906101000a900473ffffffffffffffffffffffffffffffffffffffff1673ffffffffffffffffffffffffffffffffffffffff16141515613495576040517f08c379a000000000000000000000000000000000000000000000000000000000815260040180806020018281038252602d8152602001807f766f757320646576657a20c3aa747265206c652070726f707269c3a97461697281526020017f65206465206c27616e696d616c0000000000000000000000000000000000000081525060400191505060405180910390fd5b60016014600084815260200190815260200160002060040160006101000a81548160ff0219169083151502179055506014600083815260200190815260200160002060040160009054906101000a900460ff169050919050565b6000600460008473ffffffffffffffffffffffffffffffffffffffff1673ffffffffffffffffffffffffffffffffffffffff16815260200190815260200160002060008373ffffffffffffffffffffffffffffffffffffffff1673ffffffffffffffffffffffffffffffffffffffff16815260200190815260200160002060009054906101000a900460ff16905092915050565b600073ffffffffffffffffffffffffffffffffffffffff168173ffffffffffffffffffffffffffffffffffffffff16141515156135bf57600080fd5b6135c982826139b5565b1515156135d557600080fd5b60018260000160008373ffffffffffffffffffffffffffffffffffffffff1673ffffffffffffffffffffffffffffffffffffffff16815260200190815260200160002060006101000a81548160ff0219169083151502179055505050565b6000806001600084815260200190815260200160002060009054906101000a900473ffffffffffffffffffffffffffffffffffffffff169050600073ffffffffffffffffffffffffffffffffffffffff168173ffffffffffffffffffffffffffffffffffffffff161415915050919050565b6136b981600661358390919063ffffffff16565b8073ffffffffffffffffffffffffffffffffffffffff167fee1504a83b6d4a361f4c1dc78ab59bfa30d6a3b6612c403e86bb01ef2984295f60405160405180910390a250565b60008061370b836128e1565b90508073ffffffffffffffffffffffffffffffffffffffff168473ffffffffffffffffffffffffffffffffffffffff16148061377a57508373ffffffffffffffffffffffffffffffffffffffff16613762846117ba565b73ffffffffffffffffffffffffffffffffffffffff16145b8061378b575061378a81856134ef565b5b91505092915050565b8273ffffffffffffffffffffffffffffffffffffffff166137b4826128e1565b73ffffffffffffffffffffffffffffffffffffffff161415156137d657600080fd5b600073ffffffffffffffffffffffffffffffffffffffff168273ffffffffffffffffffffffffffffffffffffffff161415151561381257600080fd5b61381b81613f22565b613862600360008573ffffffffffffffffffffffffffffffffffffffff1673ffffffffffffffffffffffffffffffffffffffff168152602001908152602001600020613fe2565b6138a9600360008473ffffffffffffffffffffffffffffffffffffffff1673ffffffffffffffffffffffffffffffffffffffff168152602001908152602001600020614005565b816001600083815260200190815260200160002060006101000a81548173ffffffffffffffffffffffffffffffffffffffff021916908373ffffffffffffffffffffffffffffffffffffffff160217905550808273ffffffffffffffffffffffffffffffffffffffff168473ffffffffffffffffffffffffffffffffffffffff167fddf252ad1be2c89b69c2b068fc378daa952ba7f163c4a11628f55a4df523b3ef60405160405180910390a4505050565b61396f816006613a4990919063ffffffff16565b8073ffffffffffffffffffffffffffffffffffffffff167f270d9b30cf5b0793bbfd54c9d5b94aeb49462b8148399000265144a8722da6b660405160405180910390a250565b60008073ffffffffffffffffffffffffffffffffffffffff168273ffffffffffffffffffffffffffffffffffffffff16141515156139f257600080fd5b8260000160008373ffffffffffffffffffffffffffffffffffffffff1673ffffffffffffffffffffffffffffffffffffffff16815260200190815260200160002060009054906101000a900460ff16905092915050565b600073ffffffffffffffffffffffffffffffffffffffff168173ffffffffffffffffffffffffffffffffffffffff1614151515613a8557600080fd5b613a8f82826139b5565b1515613a9a57600080fd5b60008260000160008373ffffffffffffffffffffffffffffffffffffffff1673ffffffffffffffffffffffffffffffffffffffff16815260200190815260200160002060006101000a81548160ff0219169083151502179055505050565b613b0c816005613a4990919063ffffffff16565b8073ffffffffffffffffffffffffffffffffffffffff167f0a8eb35e5ca14b3d6f28e4abf2f128dbab231a58b56e89beb5d636115001e16560405160405180910390a250565b8173ffffffffffffffffffffffffffffffffffffffff16613b72826128e1565b73ffffffffffffffffffffffffffffffffffffffff16141515613b9457600080fd5b613b9d81613f22565b613be4600360008473ffffffffffffffffffffffffffffffffffffffff1673ffffffffffffffffffffffffffffffffffffffff168152602001908152602001600020613fe2565b60006001600083815260200190815260200160002060006101000a81548173ffffffffffffffffffffffffffffffffffffffff021916908373ffffffffffffffffffffffffffffffffffffffff16021790555080600073ffffffffffffffffffffffffffffffffffffffff168373ffffffffffffffffffffffffffffffffffffffff167fddf252ad1be2c89b69c2b068fc378daa952ba7f163c4a11628f55a4df523b3ef60405160405180910390a45050565b600081600001549050919050565b613cb981600561358390919063ffffffff16565b8073ffffffffffffffffffffffffffffffffffffffff167f22380c05984257a1cb900161c713dd71d39e74820f1aea43bd3f1bdd2096129960405160405180910390a250565b6000613d208473ffffffffffffffffffffffffffffffffffffffff1661401b565b1515613d2f5760019050613f1a565b60008473ffffffffffffffffffffffffffffffffffffffff1663150b7a02338887876040518563ffffffff167c0100000000000000000000000000000000000000000000000000000000028152600401808573ffffffffffffffffffffffffffffffffffffffff1673ffffffffffffffffffffffffffffffffffffffff1681526020018473ffffffffffffffffffffffffffffffffffffffff1673ffffffffffffffffffffffffffffffffffffffff16815260200183815260200180602001828103825283818151815260200191508051906020019080838360005b83811015613e26578082015181840152602081019050613e0b565b50505050905090810190601f168015613e535780820380516001836020036101000a031916815260200191505b5095505050505050602060405180830381600087803b158015613e7557600080fd5b505af1158015613e89573d6000803e3d6000fd5b505050506040513d6020811015613e9f57600080fd5b8101908080519060200190929190505050905063150b7a027c0100000000000000000000000000000000000000000000000000000000027bffffffffffffffffffffffffffffffffffffffffffffffffffffffff1916817bffffffffffffffffffffffffffffffffffffffffffffffffffffffff1916149150505b949350505050565b600073ffffffffffffffffffffffffffffffffffffffff166002600083815260200190815260200160002060009054906101000a900473ffffffffffffffffffffffffffffffffffffffff1673ffffffffffffffffffffffffffffffffffffffff16141515613fdf5760006002600083815260200190815260200160002060006101000a81548173ffffffffffffffffffffffffffffffffffffffff021916908373ffffffffffffffffffffffffffffffffffffffff1602179055505b50565b613ffa6001826000015461402e90919063ffffffff16565b816000018190555050565b6001816000016000828254019250508190555050565b600080823b905060008111915050919050565b600082821115151561403f57600080fd5b600082840390508091505092915050565b828054600181600116156101000203166002900490600052602060002090601f016020900481019282601f1061408957805485556140c6565b828001600101855582156140c657600052602060002091601f016020900482015b828111156140c55782548255916001019190600101906140aa565b5b5090506140d39190614157565b5090565b828054600181600116156101000203166002900490600052602060002090601f016020900481019282601f1061411857805160ff1916838001178555614146565b82800160010185558215614146579182015b8281111561414557825182559160200191906001019061412a565b5b5090506141539190614157565b5090565b61417991905b8082111561417557600081600090555060010161415d565b5090565b9056fea165627a7a723058206db31c165a537a50ab0b306f84272673368d05b5ab777f2b9085bb40747f2c260029",
  "source": "pragma solidity >=0.4.25;\r\nimport \"openzeppelin-solidity/contracts/token/ERC721/ERC721.sol\";\r\nimport \"./WhitelistAdminRole.sol\";\r\nimport \"./WhitelistedRole.sol\";\r\ncontract Animals is ERC721,WhitelistAdminRole,WhitelistedRole{\r\n\r\n    event BreederRemoved(address indexed account);\r\n    event BreederAdded(address indexed account);\r\n    event PetDied(address indexed account);\r\n    event HighestBidIncreased(address bidder, uint amount);\r\n    event AuctionEnded(address winner, uint amount);\r\n\r\n    address public owner;\r\n    uint256 public nextTokenId;\r\n    string unknown;\r\n    string baby;\r\n\r\n\r\n    address public beneficiary;\r\n    uint public auctionEndTime;\r\n    address public highestBidder;\r\n    uint public highestBid;\r\n    uint public biddingTime;\r\n\r\n\r\n    bool ended;\r\n\r\n    mapping(address => uint) pendingReturns;\r\n\r\n    Roles.Role private _registerBreeders;\r\n    struct Pet\r\n    {\r\n        string name;\r\n        string race;\r\n        string espece;\r\n        uint256 age;\r\n        bool horny;\r\n        address proprietaire;\r\n    }\r\n\r\n    struct Foofighter\r\n    {\r\n        bool peutcombattre;\r\n        uint level; \r\n        uint256 nbVictoire;\r\n        uint256 nbDefaite;\r\n    }\r\n\r\n    struct Genes\r\n    {\r\n        string color;\r\n        string fur;\r\n        string eyes;\r\n    }\r\n\r\n    struct Sex\r\n    {\r\n        bool sex;\r\n    }\r\n\r\n    struct Proprietaire\r\n    {\r\n        address account;\r\n        uint256 nbPets;\r\n        bool feuVert;\r\n        mapping(uint256=>Pet) _myPets;\r\n    }\r\n    mapping (uint256 => address) private _tokenOwner;\r\n    mapping(uint=>Pet) public _registerPet;\r\n    mapping(uint=>Foofighter) public _registerFighting;\r\n    mapping(uint=>Genes) public _registerGenes;\r\n    mapping(uint=>Sex) public _registerSex;\r\n    mapping(uint=>Proprietaire) public _registerProp;\r\n    \r\n\r\n    constructor() public{\r\n        owner = 0x81D73743E4d31EBa453343264d6cEd820bB436f1;\r\n        nextTokenId = 0;\r\n        baby = baby;\r\n       // biddingTime=\r\n       //auctionEndTime = now + _biddingTime;\r\n        ended = false;\r\n        addWhitelisted(0x81D73743E4d31EBa453343264d6cEd820bB436f1);\r\n        addWhitelisted(0x335aD6C6977115cDE1033E86950656A9871C0a25);\r\n        _transferFrom(owner,0xbdB575cc6762080A4C262718Cf3645e9b5E7278B,3);\r\n    }\r\n\r\n    //---------------------------------Functions-------------------------------//\r\n    modifier onlyOwner(address account) {\r\n        require(account==msg.sender);\r\n        _;\r\n    }\r\n   \r\n    function addBreeder(address account) public onlyOwner(owner){\r\n        require(isWhitelisted(account)==true);\r\n        _registerBreeders.add(account);\r\n        emit BreederAdded(account);\r\n\r\n    }\r\n\r\n    function removeBreeder(address account) public onlyOwner(owner) {\r\n        require(isWhitelisted(account)==true);\r\n        _registerBreeders.remove(account);\r\n        emit BreederRemoved(account);\r\n    }\r\n\r\n    function addPet(string memory _name,string memory _race,string memory _espece)public returns(bool){\r\n        require(isWhitelisted(msg.sender) == true);\r\n        _tokenOwner[nextTokenId] = msg.sender;\r\n        _registerPet[nextTokenId].proprietaire = msg.sender;\r\n        _registerPet[nextTokenId].name = _name;\r\n        _registerPet[nextTokenId].race = _race;\r\n        _registerPet[nextTokenId].espece = _espece;\r\n        _registerPet[nextTokenId].age = 0;\r\n        _tokenOwner[nextTokenId] = msg.sender;\r\n        nextTokenId = nextTokenId+1;\r\n        //Pour le sex associer un sex avec une chance sur 2\r\n        return true;\r\n    }\r\n\r\n    function deadPet(address proprio, uint256 tokenId)public {\r\n        _burn(owner,tokenId);\r\n        emit PetDied(owner);\r\n\r\n    }\r\n\r\n\r\n    function setHorny(uint _tokenId) public  returns (bool) {\r\n        require(msg.sender!= address(0));\r\n        require(isWhitelisted(msg.sender) == true,\"vous n'tes pas whitelist\");\r\n        require(_tokenOwner[_tokenId] == msg.sender,\"vous devez tre le propritaire de l'animal\");\r\n        _registerPet[_tokenId].horny = true;\r\n        return _registerPet[_tokenId].horny;\r\n    }\r\n\r\n    function setFeuvert(uint256 _tokenId)public returns (bool){\r\n        require(msg.sender!= address(0));\r\n       \r\n        if (_tokenOwner[_tokenId]==msg.sender){\r\n            _registerProp[_tokenId].feuVert=true;\r\n            return _registerProp[_tokenId].feuVert;\r\n        }\r\n       \r\n    }\r\n\r\n    function breedAnimal(address prop1, address prop2,uint _tokenId1,uint _tokenId2,string memory _name,string memory _race,string memory _sex, string memory _espece)public returns(bool){\r\n        require(_tokenOwner[_tokenId1] == prop1,\"vous devez tre proprietaire de cet animal\");\r\n        require(_tokenOwner[_tokenId2] == prop2,\"vous devez tre proprietaire de cet animal\");\r\n        if (_registerPet[_tokenId1].horny == true && _registerPet[_tokenId2].horny == true && _registerProp[_tokenId1].feuVert == true && _registerProp[_tokenId2].feuVert == true){\r\n            if(msg.sender==prop1||msg.sender==prop2){\r\n                _registerGenes[nextTokenId] = _registerGenes[_tokenId1];\r\n                addPet(baby,_registerPet[_tokenId1].race,_registerPet[_tokenId2].espece);\r\n                return addPet(baby,_registerPet[_tokenId1].race,_registerPet[_tokenId2].espece);\r\n\r\n            }\r\n\r\n        }\r\n        \r\n    }\r\n    /*\r\n    function withdraw() public returns (bool) {\r\n        uint amount = pendingReturns[msg.sender];\r\n        if (amount > 0) {\r\n            pendingReturns[msg.sender] = 0;\r\n\r\n            if (!msg.sender.send(amount)) {\r\n                pendingReturns[msg.sender] = amount;\r\n                return false;\r\n            }\r\n        }\r\n        return true;\r\n    }\r\n    */\r\n\r\n    function auctionEnd() public {\r\n\r\n        // 1. Conditions\r\n        require(now >= auctionEndTime, \"Auction not yet ended.\");\r\n        require(!ended, \"auctionEnd has already been called.\");\r\n\r\n        // 2. ffets\r\n        ended = true;\r\n        emit AuctionEnded(highestBidder, highestBid);\r\n\r\n        // 3. Interaction\r\n        beneficiary = highestBidder;\r\n\r\n    }\r\n\r\n\r\n    function betOnAuction(uint256 tokenId, uint256 bid)public{\r\n        require(_tokenOwner[tokenId]!=msg.sender);\r\n        require( now <= auctionEndTime,\"Auction already ended.\");\r\n        require(bid > highestBid,\"There already is a higher bid.\");\r\n        if (highestBid != 0) {\r\n            pendingReturns[highestBidder] += highestBid;\r\n        }\r\n        highestBidder = msg.sender;\r\n        highestBid = bid;\r\n        emit HighestBidIncreased(msg.sender,bid);\r\n\r\n    }\r\n\r\n    \r\n\r\n\r\n\r\n\r\n}\r\n\r\n\r\n",
  "sourcePath": "C:\\Users\\lobes\\.vscode\\registre\\contracts\\Animals.sol",
  "compiler": {
    "name": "solc",
    "version": "0.5.0+commit.1d4f565a.Emscripten.clang"
  },
  "schemaVersion": "3.0.3",
  "updatedAt": "2019-03-21T03:39:50.365Z",
  "devdoc": {
    "methods": {
      "approve(address,uint256)": {
        "details": "Approves another address to transfer the given token ID The zero address indicates there is no approved address. There can only be one approved address per token at a given time. Can only be called by the token owner or an approved operator.",
        "params": {
          "to": "address to be approved for the given token ID",
          "tokenId": "uint256 ID of the token to be approved"
        }
      },
      "balanceOf(address)": {
        "details": "Gets the balance of the specified address",
        "params": {
          "owner": "address to query the balance of"
        },
        "return": "uint256 representing the amount owned by the passed address"
      },
      "getApproved(uint256)": {
        "details": "Gets the approved address for a token ID, or zero if no address set Reverts if the token ID does not exist.",
        "params": {
          "tokenId": "uint256 ID of the token to query the approval of"
        },
        "return": "address currently approved for the given token ID"
      },
      "isApprovedForAll(address,address)": {
        "details": "Tells whether an operator is approved by a given owner",
        "params": {
          "operator": "operator address which you want to query the approval of",
          "owner": "owner address which you want to query the approval of"
        },
        "return": "bool whether the given operator is approved by the given owner"
      },
      "ownerOf(uint256)": {
        "details": "Gets the owner of the specified token ID",
        "params": {
          "tokenId": "uint256 ID of the token to query the owner of"
        },
        "return": "address currently marked as the owner of the given token ID"
      },
      "safeTransferFrom(address,address,uint256)": {
        "details": "Safely transfers the ownership of a given token ID to another address If the target address is a contract, it must implement `onERC721Received`, which is called upon a safe transfer, and return the magic value `bytes4(keccak256(\"onERC721Received(address,address,uint256,bytes)\"))`; otherwise, the transfer is reverted. Requires the msg.sender to be the owner, approved, or operator",
        "params": {
          "from": "current owner of the token",
          "to": "address to receive the ownership of the given token ID",
          "tokenId": "uint256 ID of the token to be transferred"
        }
      },
      "safeTransferFrom(address,address,uint256,bytes)": {
        "details": "Safely transfers the ownership of a given token ID to another address If the target address is a contract, it must implement `onERC721Received`, which is called upon a safe transfer, and return the magic value `bytes4(keccak256(\"onERC721Received(address,address,uint256,bytes)\"))`; otherwise, the transfer is reverted. Requires the msg.sender to be the owner, approved, or operator",
        "params": {
          "_data": "bytes data to send along with a safe transfer check",
          "from": "current owner of the token",
          "to": "address to receive the ownership of the given token ID",
          "tokenId": "uint256 ID of the token to be transferred"
        }
      },
      "setApprovalForAll(address,bool)": {
        "details": "Sets or unsets the approval of a given operator An operator is allowed to transfer all tokens of the sender on their behalf",
        "params": {
          "approved": "representing the status of the approval to be set",
          "to": "operator address to set the approval"
        }
      },
      "supportsInterface(bytes4)": {
        "details": "implement supportsInterface(bytes4) using a lookup table"
      },
      "transferFrom(address,address,uint256)": {
        "details": "Transfers the ownership of a given token ID to another address Usage of this method is discouraged, use `safeTransferFrom` whenever possible Requires the msg.sender to be the owner, approved, or operator",
        "params": {
          "from": "current owner of the token",
          "to": "address to receive the ownership of the given token ID",
          "tokenId": "uint256 ID of the token to be transferred"
        }
      }
    }
  },
  "userdoc": {
    "methods": {}
  }
}