{
  "contractName": "Fight",
  "abi": [
    {
      "constant": true,
      "inputs": [
        {
          "name": "interfaceId",
          "type": "bytes4"
        }
      ],
      "name": "supportsInterface",
      "outputs": [
        {
          "name": "",
          "type": "bool"
        }
      ],
      "payable": false,
      "stateMutability": "view",
      "type": "function"
    },
    {
      "constant": true,
      "inputs": [
        {
          "name": "",
          "type": "uint256"
        }
      ],
      "name": "_registerFighting",
      "outputs": [
        {
          "name": "peutcombattre",
          "type": "bool"
        },
        {
          "name": "level",
          "type": "uint256"
        },
        {
          "name": "nbVictoire",
          "type": "uint256"
        },
        {
          "name": "nbDefaite",
          "type": "uint256"
        }
      ],
      "payable": false,
      "stateMutability": "view",
      "type": "function"
    },
    {
      "constant": false,
      "inputs": [
        {
          "name": "account",
          "type": "address"
        }
      ],
      "name": "addBreeder",
      "outputs": [],
      "payable": false,
      "stateMutability": "nonpayable",
      "type": "function"
    },
    {
      "constant": true,
      "inputs": [
        {
          "name": "tokenId",
          "type": "uint256"
        }
      ],
      "name": "getApproved",
      "outputs": [
        {
          "name": "",
          "type": "address"
        }
      ],
      "payable": false,
      "stateMutability": "view",
      "type": "function"
    },
    {
      "constant": false,
      "inputs": [
        {
          "name": "to",
          "type": "address"
        },
        {
          "name": "tokenId",
          "type": "uint256"
        }
      ],
      "name": "approve",
      "outputs": [],
      "payable": false,
      "stateMutability": "nonpayable",
      "type": "function"
    },
    {
      "constant": false,
      "inputs": [
        {
          "name": "account",
          "type": "address"
        }
      ],
      "name": "addWhitelisted",
      "outputs": [],
      "payable": false,
      "stateMutability": "nonpayable",
      "type": "function"
    },
    {
      "constant": true,
      "inputs": [
        {
          "name": "",
          "type": "uint256"
        }
      ],
      "name": "_registerProp",
      "outputs": [
        {
          "name": "account",
          "type": "address"
        },
        {
          "name": "nbPets",
          "type": "uint256"
        },
        {
          "name": "feuVert",
          "type": "bool"
        }
      ],
      "payable": false,
      "stateMutability": "view",
      "type": "function"
    },
    {
      "constant": false,
      "inputs": [
        {
          "name": "_tokenId",
          "type": "uint256"
        }
      ],
      "name": "setFeuvert",
      "outputs": [
        {
          "name": "",
          "type": "bool"
        }
      ],
      "payable": false,
      "stateMutability": "nonpayable",
      "type": "function"
    },
    {
      "constant": false,
      "inputs": [
        {
          "name": "prop1",
          "type": "address"
        },
        {
          "name": "prop2",
          "type": "address"
        },
        {
          "name": "_tokenId1",
          "type": "uint256"
        },
        {
          "name": "_tokenId2",
          "type": "uint256"
        },
        {
          "name": "_name",
          "type": "string"
        },
        {
          "name": "_race",
          "type": "string"
        },
        {
          "name": "_sex",
          "type": "string"
        },
        {
          "name": "_espece",
          "type": "string"
        }
      ],
      "name": "breedAnimal",
      "outputs": [
        {
          "name": "",
          "type": "bool"
        }
      ],
      "payable": false,
      "stateMutability": "nonpayable",
      "type": "function"
    },
    {
      "constant": false,
      "inputs": [
        {
          "name": "from",
          "type": "address"
        },
        {
          "name": "to",
          "type": "address"
        },
        {
          "name": "tokenId",
          "type": "uint256"
        }
      ],
      "name": "transferFrom",
      "outputs": [],
      "payable": false,
      "stateMutability": "nonpayable",
      "type": "function"
    },
    {
      "constant": false,
      "inputs": [
        {
          "name": "account",
          "type": "address"
        }
      ],
      "name": "removeWhitelisted",
      "outputs": [],
      "payable": false,
      "stateMutability": "nonpayable",
      "type": "function"
    },
    {
      "constant": false,
      "inputs": [],
      "name": "auctionEnd",
      "outputs": [],
      "payable": false,
      "stateMutability": "nonpayable",
      "type": "function"
    },
    {
      "constant": true,
      "inputs": [],
      "name": "beneficiary",
      "outputs": [
        {
          "name": "",
          "type": "address"
        }
      ],
      "payable": false,
      "stateMutability": "view",
      "type": "function"
    },
    {
      "constant": true,
      "inputs": [
        {
          "name": "account",
          "type": "address"
        }
      ],
      "name": "isWhitelisted",
      "outputs": [
        {
          "name": "",
          "type": "bool"
        }
      ],
      "payable": false,
      "stateMutability": "view",
      "type": "function"
    },
    {
      "constant": false,
      "inputs": [
        {
          "name": "from",
          "type": "address"
        },
        {
          "name": "to",
          "type": "address"
        },
        {
          "name": "tokenId",
          "type": "uint256"
        }
      ],
      "name": "safeTransferFrom",
      "outputs": [],
      "payable": false,
      "stateMutability": "nonpayable",
      "type": "function"
    },
    {
      "constant": false,
      "inputs": [
        {
          "name": "account",
          "type": "address"
        }
      ],
      "name": "removeBreeder",
      "outputs": [],
      "payable": false,
      "stateMutability": "nonpayable",
      "type": "function"
    },
    {
      "constant": true,
      "inputs": [],
      "name": "auctionEndTime",
      "outputs": [
        {
          "name": "",
          "type": "uint256"
        }
      ],
      "payable": false,
      "stateMutability": "view",
      "type": "function"
    },
    {
      "constant": false,
      "inputs": [],
      "name": "renounceWhitelistAdmin",
      "outputs": [],
      "payable": false,
      "stateMutability": "nonpayable",
      "type": "function"
    },
    {
      "constant": false,
      "inputs": [
        {
          "name": "_name",
          "type": "string"
        },
        {
          "name": "_race",
          "type": "string"
        },
        {
          "name": "_espece",
          "type": "string"
        }
      ],
      "name": "addPet",
      "outputs": [
        {
          "name": "",
          "type": "bool"
        }
      ],
      "payable": false,
      "stateMutability": "nonpayable",
      "type": "function"
    },
    {
      "constant": false,
      "inputs": [
        {
          "name": "proprio",
          "type": "address"
        },
        {
          "name": "tokenId",
          "type": "uint256"
        }
      ],
      "name": "deadPet",
      "outputs": [],
      "payable": false,
      "stateMutability": "nonpayable",
      "type": "function"
    },
    {
      "constant": true,
      "inputs": [
        {
          "name": "tokenId",
          "type": "uint256"
        }
      ],
      "name": "ownerOf",
      "outputs": [
        {
          "name": "",
          "type": "address"
        }
      ],
      "payable": false,
      "stateMutability": "view",
      "type": "function"
    },
    {
      "constant": true,
      "inputs": [
        {
          "name": "owner",
          "type": "address"
        }
      ],
      "name": "balanceOf",
      "outputs": [
        {
          "name": "",
          "type": "uint256"
        }
      ],
      "payable": false,
      "stateMutability": "view",
      "type": "function"
    },
    {
      "constant": false,
      "inputs": [
        {
          "name": "account",
          "type": "address"
        }
      ],
      "name": "addWhitelistAdmin",
      "outputs": [],
      "payable": false,
      "stateMutability": "nonpayable",
      "type": "function"
    },
    {
      "constant": true,
      "inputs": [],
      "name": "nextTokenId",
      "outputs": [
        {
          "name": "",
          "type": "uint256"
        }
      ],
      "payable": false,
      "stateMutability": "view",
      "type": "function"
    },
    {
      "constant": true,
      "inputs": [],
      "name": "owner",
      "outputs": [
        {
          "name": "",
          "type": "address"
        }
      ],
      "payable": false,
      "stateMutability": "view",
      "type": "function"
    },
    {
      "constant": true,
      "inputs": [],
      "name": "highestBidder",
      "outputs": [
        {
          "name": "",
          "type": "address"
        }
      ],
      "payable": false,
      "stateMutability": "view",
      "type": "function"
    },
    {
      "constant": false,
      "inputs": [
        {
          "name": "to",
          "type": "address"
        },
        {
          "name": "approved",
          "type": "bool"
        }
      ],
      "name": "setApprovalForAll",
      "outputs": [],
      "payable": false,
      "stateMutability": "nonpayable",
      "type": "function"
    },
    {
      "constant": true,
      "inputs": [
        {
          "name": "",
          "type": "uint256"
        }
      ],
      "name": "_registerGenes",
      "outputs": [
        {
          "name": "color",
          "type": "string"
        },
        {
          "name": "fur",
          "type": "string"
        },
        {
          "name": "eyes",
          "type": "string"
        }
      ],
      "payable": false,
      "stateMutability": "view",
      "type": "function"
    },
    {
      "constant": false,
      "inputs": [
        {
          "name": "from",
          "type": "address"
        },
        {
          "name": "to",
          "type": "address"
        },
        {
          "name": "tokenId",
          "type": "uint256"
        },
        {
          "name": "_data",
          "type": "bytes"
        }
      ],
      "name": "safeTransferFrom",
      "outputs": [],
      "payable": false,
      "stateMutability": "nonpayable",
      "type": "function"
    },
    {
      "constant": true,
      "inputs": [
        {
          "name": "account",
          "type": "address"
        }
      ],
      "name": "isWhitelistAdmin",
      "outputs": [
        {
          "name": "",
          "type": "bool"
        }
      ],
      "payable": false,
      "stateMutability": "view",
      "type": "function"
    },
    {
      "constant": false,
      "inputs": [
        {
          "name": "tokenId",
          "type": "uint256"
        },
        {
          "name": "bid",
          "type": "uint256"
        }
      ],
      "name": "betOnAuction",
      "outputs": [],
      "payable": false,
      "stateMutability": "nonpayable",
      "type": "function"
    },
    {
      "constant": true,
      "inputs": [
        {
          "name": "",
          "type": "uint256"
        }
      ],
      "name": "_registerSex",
      "outputs": [
        {
          "name": "sex",
          "type": "bool"
        }
      ],
      "payable": false,
      "stateMutability": "view",
      "type": "function"
    },
    {
      "constant": true,
      "inputs": [],
      "name": "biddingTime",
      "outputs": [
        {
          "name": "",
          "type": "uint256"
        }
      ],
      "payable": false,
      "stateMutability": "view",
      "type": "function"
    },
    {
      "constant": true,
      "inputs": [],
      "name": "highestBid",
      "outputs": [
        {
          "name": "",
          "type": "uint256"
        }
      ],
      "payable": false,
      "stateMutability": "view",
      "type": "function"
    },
    {
      "constant": false,
      "inputs": [],
      "name": "renounceWhitelisted",
      "outputs": [],
      "payable": false,
      "stateMutability": "nonpayable",
      "type": "function"
    },
    {
      "constant": true,
      "inputs": [
        {
          "name": "",
          "type": "uint256"
        }
      ],
      "name": "_registerPet",
      "outputs": [
        {
          "name": "name",
          "type": "string"
        },
        {
          "name": "race",
          "type": "string"
        },
        {
          "name": "espece",
          "type": "string"
        },
        {
          "name": "age",
          "type": "uint256"
        },
        {
          "name": "horny",
          "type": "bool"
        },
        {
          "name": "proprietaire",
          "type": "address"
        }
      ],
      "payable": false,
      "stateMutability": "view",
      "type": "function"
    },
    {
      "constant": false,
      "inputs": [
        {
          "name": "_tokenId",
          "type": "uint256"
        }
      ],
      "name": "setHorny",
      "outputs": [
        {
          "name": "",
          "type": "bool"
        }
      ],
      "payable": false,
      "stateMutability": "nonpayable",
      "type": "function"
    },
    {
      "constant": true,
      "inputs": [
        {
          "name": "owner",
          "type": "address"
        },
        {
          "name": "operator",
          "type": "address"
        }
      ],
      "name": "isApprovedForAll",
      "outputs": [
        {
          "name": "",
          "type": "bool"
        }
      ],
      "payable": false,
      "stateMutability": "view",
      "type": "function"
    },
    {
      "inputs": [],
      "payable": false,
      "stateMutability": "nonpayable",
      "type": "constructor"
    },
    {
      "anonymous": false,
      "inputs": [
        {
          "indexed": true,
          "name": "account",
          "type": "address"
        }
      ],
      "name": "BreederRemoved",
      "type": "event"
    },
    {
      "anonymous": false,
      "inputs": [
        {
          "indexed": true,
          "name": "account",
          "type": "address"
        }
      ],
      "name": "BreederAdded",
      "type": "event"
    },
    {
      "anonymous": false,
      "inputs": [
        {
          "indexed": true,
          "name": "account",
          "type": "address"
        }
      ],
      "name": "PetDied",
      "type": "event"
    },
    {
      "anonymous": false,
      "inputs": [
        {
          "indexed": false,
          "name": "bidder",
          "type": "address"
        },
        {
          "indexed": false,
          "name": "amount",
          "type": "uint256"
        }
      ],
      "name": "HighestBidIncreased",
      "type": "event"
    },
    {
      "anonymous": false,
      "inputs": [
        {
          "indexed": false,
          "name": "winner",
          "type": "address"
        },
        {
          "indexed": false,
          "name": "amount",
          "type": "uint256"
        }
      ],
      "name": "AuctionEnded",
      "type": "event"
    },
    {
      "anonymous": false,
      "inputs": [
        {
          "indexed": true,
          "name": "account",
          "type": "address"
        }
      ],
      "name": "WhitelistedAdded",
      "type": "event"
    },
    {
      "anonymous": false,
      "inputs": [
        {
          "indexed": true,
          "name": "account",
          "type": "address"
        }
      ],
      "name": "WhitelistedRemoved",
      "type": "event"
    },
    {
      "anonymous": false,
      "inputs": [
        {
          "indexed": true,
          "name": "account",
          "type": "address"
        }
      ],
      "name": "WhitelistAdminAdded",
      "type": "event"
    },
    {
      "anonymous": false,
      "inputs": [
        {
          "indexed": true,
          "name": "account",
          "type": "address"
        }
      ],
      "name": "WhitelistAdminRemoved",
      "type": "event"
    },
    {
      "anonymous": false,
      "inputs": [
        {
          "indexed": true,
          "name": "from",
          "type": "address"
        },
        {
          "indexed": true,
          "name": "to",
          "type": "address"
        },
        {
          "indexed": true,
          "name": "tokenId",
          "type": "uint256"
        }
      ],
      "name": "Transfer",
      "type": "event"
    },
    {
      "anonymous": false,
      "inputs": [
        {
          "indexed": true,
          "name": "owner",
          "type": "address"
        },
        {
          "indexed": true,
          "name": "approved",
          "type": "address"
        },
        {
          "indexed": true,
          "name": "tokenId",
          "type": "uint256"
        }
      ],
      "name": "Approval",
      "type": "event"
    },
    {
      "anonymous": false,
      "inputs": [
        {
          "indexed": true,
          "name": "owner",
          "type": "address"
        },
        {
          "indexed": true,
          "name": "operator",
          "type": "address"
        },
        {
          "indexed": false,
          "name": "approved",
          "type": "bool"
        }
      ],
      "name": "ApprovalForAll",
      "type": "event"
    },
    {
      "constant": false,
      "inputs": [
        {
          "name": "tokenid1",
          "type": "uint256"
        },
        {
          "name": "tokenid2",
          "type": "uint256"
        }
      ],
      "name": "HasWin",
      "outputs": [
        {
          "name": "",
          "type": "uint256"
        }
      ],
      "payable": false,
      "stateMutability": "nonpayable",
      "type": "function"
    },
    {
      "constant": false,
      "inputs": [
        {
          "name": "tokenId",
          "type": "uint256"
        },
        {
          "name": "bid",
          "type": "uint256"
        }
      ],
      "name": "betOnPet",
      "outputs": [],
      "payable": false,
      "stateMutability": "nonpayable",
      "type": "function"
    },
    {
      "constant": false,
      "inputs": [
        {
          "name": "tokenId",
          "type": "uint256"
        },
        {
          "name": "adverssaire",
          "type": "uint256"
        }
      ],
      "name": "ToFight",
      "outputs": [],
      "payable": false,
      "stateMutability": "nonpayable",
      "type": "function"
    }
  ],
  "bytecode": "0x60806040523480156200001157600080fd5b506200004f6301ffc9a77c010000000000000000000000000000000000000000000000000000000002620001f8640100000000026401000000009004565b6200008c6380ac58cd7c010000000000000000000000000000000000000000000000000000000002620001f8640100000000026401000000009004565b620000a633620002b6640100000000026401000000009004565b7381d73743e4d31eba453343264d6ced820bb436f1600760006101000a81548173ffffffffffffffffffffffffffffffffffffffff021916908373ffffffffffffffffffffffffffffffffffffffff1602179055506000600881905550600a8090805460018160011615610100020316600290046200012792919062000915565b506000601060006101000a81548160ff021916908315150217905550620001717381d73743e4d31eba453343264d6ced820bb436f162000320640100000000026401000000009004565b6200019f73335ad6c6977115cde1033e86950656a9871c0a2562000320640100000000026401000000009004565b620001f2600760009054906101000a900473ffffffffffffffffffffffffffffffffffffffff1673bdb575cc6762080a4c262718cf3645e9b5e7278b600362000363640100000000026401000000009004565b620009cb565b63ffffffff7c010000000000000000000000000000000000000000000000000000000002817bffffffffffffffffffffffffffffffffffffffffffffffffffffffff1916141515156200024a57600080fd5b6001600080837bffffffffffffffffffffffffffffffffffffffffffffffffffffffff19167bffffffffffffffffffffffffffffffffffffffffffffffffffffffff1916815260200190815260200160002060006101000a81548160ff02191690831515021790555050565b620002da8160056200057a6401000000000262003b3d179091906401000000009004565b8073ffffffffffffffffffffffffffffffffffffffff167f22380c05984257a1cb900161c713dd71d39e74820f1aea43bd3f1bdd2096129960405160405180910390a250565b6200033a336200063d640100000000026401000000009004565b15156200034657600080fd5b62000360816200066a640100000000026401000000009004565b50565b8273ffffffffffffffffffffffffffffffffffffffff166200039482620006d4640100000000026401000000009004565b73ffffffffffffffffffffffffffffffffffffffff16141515620003b757600080fd5b600073ffffffffffffffffffffffffffffffffffffffff168273ffffffffffffffffffffffffffffffffffffffff1614151515620003f457600080fd5b6200040e8162000753640100000000026401000000009004565b6200046b600360008573ffffffffffffffffffffffffffffffffffffffff1673ffffffffffffffffffffffffffffffffffffffff16815260200190815260200160002062000814640100000000026200459c176401000000009004565b620004c8600360008473ffffffffffffffffffffffffffffffffffffffff1673ffffffffffffffffffffffffffffffffffffffff1681526020019081526020016000206200084764010000000002620045bf176401000000009004565b816001600083815260200190815260200160002060006101000a81548173ffffffffffffffffffffffffffffffffffffffff021916908373ffffffffffffffffffffffffffffffffffffffff160217905550808273ffffffffffffffffffffffffffffffffffffffff168473ffffffffffffffffffffffffffffffffffffffff167fddf252ad1be2c89b69c2b068fc378daa952ba7f163c4a11628f55a4df523b3ef60405160405180910390a4505050565b600073ffffffffffffffffffffffffffffffffffffffff168173ffffffffffffffffffffffffffffffffffffffff1614151515620005b757600080fd5b620005d282826200085d640100000000026401000000009004565b151515620005df57600080fd5b60018260000160008373ffffffffffffffffffffffffffffffffffffffff1673ffffffffffffffffffffffffffffffffffffffff16815260200190815260200160002060006101000a81548160ff0219169083151502179055505050565b6000620006638260056200085d6401000000000262003f6f179091906401000000009004565b9050919050565b6200068e8160066200057a6401000000000262003b3d179091906401000000009004565b8073ffffffffffffffffffffffffffffffffffffffff167fee1504a83b6d4a361f4c1dc78ab59bfa30d6a3b6612c403e86bb01ef2984295f60405160405180910390a250565b6000806001600084815260200190815260200160002060009054906101000a900473ffffffffffffffffffffffffffffffffffffffff169050600073ffffffffffffffffffffffffffffffffffffffff168173ffffffffffffffffffffffffffffffffffffffff16141515156200074a57600080fd5b80915050919050565b600073ffffffffffffffffffffffffffffffffffffffff166002600083815260200190815260200160002060009054906101000a900473ffffffffffffffffffffffffffffffffffffffff1673ffffffffffffffffffffffffffffffffffffffff16141515620008115760006002600083815260200190815260200160002060006101000a81548173ffffffffffffffffffffffffffffffffffffffff021916908373ffffffffffffffffffffffffffffffffffffffff1602179055505b50565b6200083c60018260000154620008f264010000000002620045e8179091906401000000009004565b816000018190555050565b6001816000016000828254019250508190555050565b60008073ffffffffffffffffffffffffffffffffffffffff168273ffffffffffffffffffffffffffffffffffffffff16141515156200089b57600080fd5b8260000160008373ffffffffffffffffffffffffffffffffffffffff1673ffffffffffffffffffffffffffffffffffffffff16815260200190815260200160002060009054906101000a900460ff16905092915050565b60008282111515156200090457600080fd5b600082840390508091505092915050565b828054600181600116156101000203166002900490600052602060002090601f016020900481019282601f1062000950578054855562000990565b828001600101855582156200099057600052602060002091601f016020900482015b828111156200098f57825482559160010191906001019062000972565b5b5090506200099f9190620009a3565b5090565b620009c891905b80821115620009c4576000816000905550600101620009aa565b5090565b90565b61476280620009db6000396000f3fe6080604052600436106101f9576000357c0100000000000000000000000000000000000000000000000000000000900463ffffffff16806301ffc9a7146101fe578063052b794d1461027057806307c4bdeb146102d8578063081812fc14610329578063095ea7b3146103a457806310154bad146103ff5780631267331f1461045057806316bb018d146104dd5780631b1dfd39146105365780631b5f226c1461058957806323b872dd14610883578063291d9549146108fe5780632a24f46c1461094f57806338af3eed146109665780633af32abf146109bd57806342842e0e14610a2657806346456c6614610aa15780634b449cba14610af25780634c5a628c14610b1d5780634d4a7a8214610b345780635c78244614610d42578063634cceff14610d875780636352211e14610de25780636cc337fd14610e5d57806370a0823114610ea25780637362d9c814610f0757806375794a3c14610f585780638da5cb5b14610f8357806391f9015714610fda578063a22cb46514611031578063a97fd8881461108e578063b88d4fde1461121a578063bb5f747b1461132c578063c2022e9214611395578063cdad18d7146113da578063d074a38d1461142d578063d57bde7914611458578063d6cd947314611483578063df393bc11461149a578063e5bd82651461166b578063e985e9c5146116be575b600080fd5b34801561020a57600080fd5b506102566004803603602081101561022157600080fd5b8101908080357bffffffffffffffffffffffffffffffffffffffffffffffffffffffff19169060200190929190505050611747565b604051808215151515815260200191505060405180910390f35b34801561027c57600080fd5b506102a96004803603602081101561029357600080fd5b81019080803590602001909291905050506117ae565b604051808515151515815260200184815260200183815260200182815260200194505050505060405180910390f35b3480156102e457600080fd5b50610327600480360360208110156102fb57600080fd5b81019080803573ffffffffffffffffffffffffffffffffffffffff1690602001909291905050506117eb565b005b34801561033557600080fd5b506103626004803603602081101561034c57600080fd5b81019080803590602001909291905050506118be565b604051808273ffffffffffffffffffffffffffffffffffffffff1673ffffffffffffffffffffffffffffffffffffffff16815260200191505060405180910390f35b3480156103b057600080fd5b506103fd600480360360408110156103c757600080fd5b81019080803573ffffffffffffffffffffffffffffffffffffffff1690602001909291908035906020019092919050505061190f565b005b34801561040b57600080fd5b5061044e6004803603602081101561042257600080fd5b81019080803573ffffffffffffffffffffffffffffffffffffffff169060200190929190505050611a54565b005b34801561045c57600080fd5b506104896004803603602081101561047357600080fd5b8101908080359060200190929190505050611a74565b604051808473ffffffffffffffffffffffffffffffffffffffff1673ffffffffffffffffffffffffffffffffffffffff16815260200183815260200182151515158152602001935050505060405180910390f35b3480156104e957600080fd5b506105206004803603604081101561050057600080fd5b810190808035906020019092919080359060200190929190505050611acb565b6040518082815260200191505060405180910390f35b34801561054257600080fd5b5061056f6004803603602081101561055957600080fd5b8101908080359060200190929190505050611ad8565b604051808215151515815260200191505060405180910390f35b34801561059557600080fd5b5061086960048036036101008110156105ad57600080fd5b81019080803573ffffffffffffffffffffffffffffffffffffffff169060200190929190803573ffffffffffffffffffffffffffffffffffffffff16906020019092919080359060200190929190803590602001909291908035906020019064010000000081111561061e57600080fd5b82018360208201111561063057600080fd5b8035906020019184600183028401116401000000008311171561065257600080fd5b91908080601f016020809104026020016040519081016040528093929190818152602001838380828437600081840152601f19601f820116905080830192505050505050509192919290803590602001906401000000008111156106b557600080fd5b8201836020820111156106c757600080fd5b803590602001918460018302840111640100000000831117156106e957600080fd5b91908080601f016020809104026020016040519081016040528093929190818152602001838380828437600081840152601f19601f8201169050808301925050505050505091929192908035906020019064010000000081111561074c57600080fd5b82018360208201111561075e57600080fd5b8035906020019184600183028401116401000000008311171561078057600080fd5b91908080601f016020809104026020016040519081016040528093929190818152602001838380828437600081840152601f19601f820116905080830192505050505050509192919290803590602001906401000000008111156107e357600080fd5b8201836020820111156107f557600080fd5b8035906020019184600183028401116401000000008311171561081757600080fd5b91908080601f016020809104026020016040519081016040528093929190818152602001838380828437600081840152601f19601f820116905080830192505050505050509192919290505050611bdc565b604051808215151515815260200191505060405180910390f35b34801561088f57600080fd5b506108fc600480360360608110156108a657600080fd5b81019080803573ffffffffffffffffffffffffffffffffffffffff169060200190929190803573ffffffffffffffffffffffffffffffffffffffff169060200190929190803590602001909291905050506123c4565b005b34801561090a57600080fd5b5061094d6004803603602081101561092157600080fd5b81019080803573ffffffffffffffffffffffffffffffffffffffff1690602001909291905050506123e9565b005b34801561095b57600080fd5b50610964612409565b005b34801561097257600080fd5b5061097b61263d565b604051808273ffffffffffffffffffffffffffffffffffffffff1673ffffffffffffffffffffffffffffffffffffffff16815260200191505060405180910390f35b3480156109c957600080fd5b50610a0c600480360360208110156109e057600080fd5b81019080803573ffffffffffffffffffffffffffffffffffffffff169060200190929190505050612663565b604051808215151515815260200191505060405180910390f35b348015610a3257600080fd5b50610a9f60048036036060811015610a4957600080fd5b81019080803573ffffffffffffffffffffffffffffffffffffffff169060200190929190803573ffffffffffffffffffffffffffffffffffffffff16906020019092919080359060200190929190505050612680565b005b348015610aad57600080fd5b50610af060048036036020811015610ac457600080fd5b81019080803573ffffffffffffffffffffffffffffffffffffffff1690602001909291905050506126a1565b005b348015610afe57600080fd5b50610b07612774565b6040518082815260200191505060405180910390f35b348015610b2957600080fd5b50610b3261277a565b005b348015610b4057600080fd5b50610d2860048036036060811015610b5757600080fd5b8101908080359060200190640100000000811115610b7457600080fd5b820183602082011115610b8657600080fd5b80359060200191846001830284011164010000000083111715610ba857600080fd5b91908080601f016020809104026020016040519081016040528093929190818152602001838380828437600081840152601f19601f82011690508083019250505050505050919291929080359060200190640100000000811115610c0b57600080fd5b820183602082011115610c1d57600080fd5b80359060200191846001830284011164010000000083111715610c3f57600080fd5b91908080601f016020809104026020016040519081016040528093929190818152602001838380828437600081840152601f19601f82011690508083019250505050505050919291929080359060200190640100000000811115610ca257600080fd5b820183602082011115610cb457600080fd5b80359060200191846001830284011164010000000083111715610cd657600080fd5b91908080601f016020809104026020016040519081016040528093929190818152602001838380828437600081840152601f19601f820116905080830192505050505050509192919290505050612785565b604051808215151515815260200191505060405180910390f35b348015610d4e57600080fd5b50610d8560048036036040811015610d6557600080fd5b81019080803590602001909291908035906020019092919050505061295d565b005b348015610d9357600080fd5b50610de060048036036040811015610daa57600080fd5b81019080803573ffffffffffffffffffffffffffffffffffffffff16906020019092919080359060200190929190505050612c68565b005b348015610dee57600080fd5b50610e1b60048036036020811015610e0557600080fd5b8101908080359060200190929190505050612cfd565b604051808273ffffffffffffffffffffffffffffffffffffffff1673ffffffffffffffffffffffffffffffffffffffff16815260200191505060405180910390f35b348015610e6957600080fd5b50610ea060048036036040811015610e8057600080fd5b810190808035906020019092919080359060200190929190505050612d7b565b005b348015610eae57600080fd5b50610ef160048036036020811015610ec557600080fd5b81019080803573ffffffffffffffffffffffffffffffffffffffff169060200190929190505050612f19565b6040518082815260200191505060405180910390f35b348015610f1357600080fd5b50610f5660048036036020811015610f2a57600080fd5b81019080803573ffffffffffffffffffffffffffffffffffffffff169060200190929190505050612fa4565b005b348015610f6457600080fd5b50610f6d612fc4565b6040518082815260200191505060405180910390f35b348015610f8f57600080fd5b50610f98612fca565b604051808273ffffffffffffffffffffffffffffffffffffffff1673ffffffffffffffffffffffffffffffffffffffff16815260200191505060405180910390f35b348015610fe657600080fd5b50610fef612ff0565b604051808273ffffffffffffffffffffffffffffffffffffffff1673ffffffffffffffffffffffffffffffffffffffff16815260200191505060405180910390f35b34801561103d57600080fd5b5061108c6004803603604081101561105457600080fd5b81019080803573ffffffffffffffffffffffffffffffffffffffff169060200190929190803515159060200190929190505050613016565b005b34801561109a57600080fd5b506110c7600480360360208110156110b157600080fd5b8101908080359060200190929190505050613152565b60405180806020018060200180602001848103845287818151815260200191508051906020019080838360005b8381101561110f5780820151818401526020810190506110f4565b50505050905090810190601f16801561113c5780820380516001836020036101000a031916815260200191505b50848103835286818151815260200191508051906020019080838360005b8381101561117557808201518184015260208101905061115a565b50505050905090810190601f1680156111a25780820380516001836020036101000a031916815260200191505b50848103825285818151815260200191508051906020019080838360005b838110156111db5780820151818401526020810190506111c0565b50505050905090810190601f1680156112085780820380516001836020036101000a031916815260200191505b50965050505050505060405180910390f35b34801561122657600080fd5b5061132a6004803603608081101561123d57600080fd5b81019080803573ffffffffffffffffffffffffffffffffffffffff169060200190929190803573ffffffffffffffffffffffffffffffffffffffff16906020019092919080359060200190929190803590602001906401000000008111156112a457600080fd5b8201836020820111156112b657600080fd5b803590602001918460018302840111640100000000831117156112d857600080fd5b91908080601f016020809104026020016040519081016040528093929190818152602001838380828437600081840152601f19601f820116905080830192505050505050509192919290505050613344565b005b34801561133857600080fd5b5061137b6004803603602081101561134f57600080fd5b81019080803573ffffffffffffffffffffffffffffffffffffffff16906020019092919050505061336c565b604051808215151515815260200191505060405180910390f35b3480156113a157600080fd5b506113d8600480360360408110156113b857600080fd5b810190808035906020019092919080359060200190929190505050613389565b005b3480156113e657600080fd5b50611413600480360360208110156113fd57600080fd5b810190808035906020019092919050505061361f565b604051808215151515815260200191505060405180910390f35b34801561143957600080fd5b5061144261364a565b6040518082815260200191505060405180910390f35b34801561146457600080fd5b5061146d613650565b6040518082815260200191505060405180910390f35b34801561148f57600080fd5b50611498613656565b005b3480156114a657600080fd5b506114d3600480360360208110156114bd57600080fd5b8101908080359060200190929190505050613661565b60405180806020018060200180602001878152602001861515151581526020018573ffffffffffffffffffffffffffffffffffffffff1673ffffffffffffffffffffffffffffffffffffffff16815260200184810384528a818151815260200191508051906020019080838360005b8381101561155d578082015181840152602081019050611542565b50505050905090810190601f16801561158a5780820380516001836020036101000a031916815260200191505b50848103835289818151815260200191508051906020019080838360005b838110156115c35780820151818401526020810190506115a8565b50505050905090810190601f1680156115f05780820380516001836020036101000a031916815260200191505b50848103825288818151815260200191508051906020019080838360005b8381101561162957808201518184015260208101905061160e565b50505050905090810190601f1680156116565780820380516001836020036101000a031916815260200191505b50995050505050505050505060405180910390f35b34801561167757600080fd5b506116a46004803603602081101561168e57600080fd5b8101908080359060200190929190505050613892565b604051808215151515815260200191505060405180910390f35b3480156116ca57600080fd5b5061172d600480360360408110156116e157600080fd5b81019080803573ffffffffffffffffffffffffffffffffffffffff169060200190929190803573ffffffffffffffffffffffffffffffffffffffff169060200190929190505050613aa9565b604051808215151515815260200191505060405180910390f35b6000806000837bffffffffffffffffffffffffffffffffffffffffffffffffffffffff19167bffffffffffffffffffffffffffffffffffffffffffffffffffffffff1916815260200190815260200160002060009054906101000a900460ff169050919050565b60156020528060005260406000206000915090508060000160009054906101000a900460ff16908060010154908060020154908060030154905084565b600760009054906101000a900473ffffffffffffffffffffffffffffffffffffffff163373ffffffffffffffffffffffffffffffffffffffff168173ffffffffffffffffffffffffffffffffffffffff1614151561184857600080fd5b6001151561185583612663565b151514151561186357600080fd5b611877826012613b3d90919063ffffffff16565b8173ffffffffffffffffffffffffffffffffffffffff167f55bd00b3e7d4e854215e58613765da860f485363fcdf5bd6bdbc97fe2b66847a60405160405180910390a25050565b60006118c982613bed565b15156118d457600080fd5b6002600083815260200190815260200160002060009054906101000a900473ffffffffffffffffffffffffffffffffffffffff169050919050565b600061191a82612cfd565b90508073ffffffffffffffffffffffffffffffffffffffff168373ffffffffffffffffffffffffffffffffffffffff161415151561195757600080fd5b8073ffffffffffffffffffffffffffffffffffffffff163373ffffffffffffffffffffffffffffffffffffffff16148061199757506119968133613aa9565b5b15156119a257600080fd5b826002600084815260200190815260200160002060006101000a81548173ffffffffffffffffffffffffffffffffffffffff021916908373ffffffffffffffffffffffffffffffffffffffff160217905550818373ffffffffffffffffffffffffffffffffffffffff168273ffffffffffffffffffffffffffffffffffffffff167f8c5be1e5ebec7d5bd14f71427d1e84f3dd0314c0f7b2291e5b200ac8c7c3b92560405160405180910390a4505050565b611a5d3361336c565b1515611a6857600080fd5b611a7181613c5f565b50565b60186020528060005260406000206000915090508060000160009054906101000a900473ffffffffffffffffffffffffffffffffffffffff16908060010154908060020160009054906101000a900460ff16905083565b6000808091505092915050565b60008073ffffffffffffffffffffffffffffffffffffffff163373ffffffffffffffffffffffffffffffffffffffff1614151515611b1557600080fd5b3373ffffffffffffffffffffffffffffffffffffffff166013600084815260200190815260200160002060009054906101000a900473ffffffffffffffffffffffffffffffffffffffff1673ffffffffffffffffffffffffffffffffffffffff161415611bd65760016018600084815260200190815260200160002060020160006101000a81548160ff0219169083151502179055506018600083815260200190815260200160002060020160009054906101000a900460ff169050611bd7565b5b919050565b60008873ffffffffffffffffffffffffffffffffffffffff166013600089815260200190815260200160002060009054906101000a900473ffffffffffffffffffffffffffffffffffffffff1673ffffffffffffffffffffffffffffffffffffffff16141515611cda576040517f08c379a000000000000000000000000000000000000000000000000000000000815260040180806020018281038252602b8152602001807f766f757320646576657a20c3aa7472652070726f70726965746169726520646581526020017f2063657420616e696d616c00000000000000000000000000000000000000000081525060400191505060405180910390fd5b8773ffffffffffffffffffffffffffffffffffffffff166013600088815260200190815260200160002060009054906101000a900473ffffffffffffffffffffffffffffffffffffffff1673ffffffffffffffffffffffffffffffffffffffff16141515611dd6576040517f08c379a000000000000000000000000000000000000000000000000000000000815260040180806020018281038252602b8152602001807f766f757320646576657a20c3aa7472652070726f70726965746169726520646581526020017f2063657420616e696d616c00000000000000000000000000000000000000000081525060400191505060405180910390fd5b600115156014600089815260200190815260200160002060040160009054906101000a900460ff161515148015611e345750600115156014600088815260200190815260200160002060040160009054906101000a900460ff161515145b8015611e675750600115156018600089815260200190815260200160002060020160009054906101000a900460ff161515145b8015611e9a5750600115156018600088815260200190815260200160002060020160009054906101000a900460ff161515145b156123b7578873ffffffffffffffffffffffffffffffffffffffff163373ffffffffffffffffffffffffffffffffffffffff161480611f0457508773ffffffffffffffffffffffffffffffffffffffff163373ffffffffffffffffffffffffffffffffffffffff16145b156123b6576016600088815260200190815260200160002060166000600854815260200190815260200160002060008201816000019080546001816001161561010002031660029004611f5892919061460a565b5060018201816001019080546001816001161561010002031660029004611f8092919061460a565b5060028201816002019080546001816001161561010002031660029004611fa892919061460a565b509050506121ad600a8054600181600116156101000203166002900480601f0160208091040260200160405190810160405280929190818152602001828054600181600116156101000203166002900480156120455780601f1061201a57610100808354040283529160200191612045565b820191906000526020600020905b81548152906001019060200180831161202857829003601f168201915b5050505050601460008a81526020019081526020016000206001018054600181600116156101000203166002900480601f0160208091040260200160405190810160405280929190818152602001828054600181600116156101000203166002900480156120f45780601f106120c9576101008083540402835291602001916120f4565b820191906000526020600020905b8154815290600101906020018083116120d757829003601f168201915b5050505050601460008a81526020019081526020016000206002018054600181600116156101000203166002900480601f0160208091040260200160405190810160405280929190818152602001828054600181600116156101000203166002900480156121a35780601f10612178576101008083540402835291602001916121a3565b820191906000526020600020905b81548152906001019060200180831161218657829003601f168201915b5050505050612785565b506123af600a8054600181600116156101000203166002900480601f0160208091040260200160405190810160405280929190818152602001828054600181600116156101000203166002900480156122475780601f1061221c57610100808354040283529160200191612247565b820191906000526020600020905b81548152906001019060200180831161222a57829003601f168201915b5050505050601460008a81526020019081526020016000206001018054600181600116156101000203166002900480601f0160208091040260200160405190810160405280929190818152602001828054600181600116156101000203166002900480156122f65780601f106122cb576101008083540402835291602001916122f6565b820191906000526020600020905b8154815290600101906020018083116122d957829003601f168201915b5050505050601460008a81526020019081526020016000206002018054600181600116156101000203166002900480601f0160208091040260200160405190810160405280929190818152602001828054600181600116156101000203166002900480156123a55780601f1061237a576101008083540402835291602001916123a5565b820191906000526020600020905b81548152906001019060200180831161238857829003601f168201915b5050505050612785565b90506123b8565b5b5b98975050505050505050565b6123ce3382613cb9565b15156123d957600080fd5b6123e4838383613d4e565b505050565b6123f23361336c565b15156123fd57600080fd5b61240681613f15565b50565b600c544210151515612483576040517f08c379a00000000000000000000000000000000000000000000000000000000081526004018080602001828103825260168152602001807f41756374696f6e206e6f742079657420656e6465642e0000000000000000000081525060200191505060405180910390fd5b601060009054906101000a900460ff1615151561252e576040517f08c379a00000000000000000000000000000000000000000000000000000000081526004018080602001828103825260238152602001807f61756374696f6e456e642068617320616c7265616479206265656e2063616c6c81526020017f65642e000000000000000000000000000000000000000000000000000000000081525060400191505060405180910390fd5b6001601060006101000a81548160ff0219169083151502179055507fdaec4582d5d9595688c8c98545fdd1c696d41c6aeaeb636737e84ed2f5c00eda600d60009054906101000a900473ffffffffffffffffffffffffffffffffffffffff16600e54604051808373ffffffffffffffffffffffffffffffffffffffff1673ffffffffffffffffffffffffffffffffffffffff1681526020018281526020019250505060405180910390a1600d60009054906101000a900473ffffffffffffffffffffffffffffffffffffffff16600b60006101000a81548173ffffffffffffffffffffffffffffffffffffffff021916908373ffffffffffffffffffffffffffffffffffffffff160217905550565b600b60009054906101000a900473ffffffffffffffffffffffffffffffffffffffff1681565b6000612679826006613f6f90919063ffffffff16565b9050919050565b61269c8383836020604051908101604052806000815250613344565b505050565b600760009054906101000a900473ffffffffffffffffffffffffffffffffffffffff163373ffffffffffffffffffffffffffffffffffffffff168173ffffffffffffffffffffffffffffffffffffffff161415156126fe57600080fd5b6001151561270b83612663565b151514151561271957600080fd5b61272d82601261400390919063ffffffff16565b8173ffffffffffffffffffffffffffffffffffffffff167f2d5cebad2a7f0f074c4d2e6d56e39003468b1a87800ecce7ccc12827a47de0e660405160405180910390a25050565b600c5481565b612783336140b2565b565b60006001151561279433612663565b15151415156127a257600080fd5b3360136000600854815260200190815260200160002060006101000a81548173ffffffffffffffffffffffffffffffffffffffff021916908373ffffffffffffffffffffffffffffffffffffffff1602179055503360146000600854815260200190815260200160002060040160016101000a81548173ffffffffffffffffffffffffffffffffffffffff021916908373ffffffffffffffffffffffffffffffffffffffff160217905550836014600060085481526020019081526020016000206000019080519060200190612879929190614691565b508260146000600854815260200190815260200160002060010190805190602001906128a6929190614691565b508160146000600854815260200190815260200160002060020190805190602001906128d3929190614691565b506000601460006008548152602001908152602001600020600301819055503360136000600854815260200190815260200160002060006101000a81548173ffffffffffffffffffffffffffffffffffffffff021916908373ffffffffffffffffffffffffffffffffffffffff160217905550600160085401600881905550600190509392505050565b3373ffffffffffffffffffffffffffffffffffffffff16601a600084815260200190815260200160002060009054906101000a900473ffffffffffffffffffffffffffffffffffffffff1673ffffffffffffffffffffffffffffffffffffffff16141515612a7f576040517f08c379a00000000000000000000000000000000000000000000000000000000081526004018080602001828103825260438152602001807f766f7573206e6520706f7576657a2070617320666169726520636f6d6261747481526020017f726520756e20616e696d616c20717569206e2765737420706173206c6520766f81526020017f747265000000000000000000000000000000000000000000000000000000000081525060600191505060405180910390fd5b600115156015600084815260200190815260200160002060000160009054906101000a900460ff161515141515612b44576040517f08c379a000000000000000000000000000000000000000000000000000000000815260040180806020018281038252603a8152602001807f20766f74726520616e696d616c206e276573742070617320696e73637269742081526020017f64616e73206c6520726567697374726520646520636f6d62617400000000000081525060400191505060405180910390fd5b601560008281526020019081526020016000206001015460156000848152602001908152602001600020600101541415612c6457600115156015600083815260200190815260200160002060000160009054906101000a900460ff161515141515612c63576040517f08c379a00000000000000000000000000000000000000000000000000000000081526004018080602001828103825260438152602001807f766f7573206e6520706f7576657a2070617320666169726520636f6d6261747481526020017f726520756e20616e696d616c20717569206e2765737420706173206c6520766f81526020017f747265000000000000000000000000000000000000000000000000000000000081525060600191505060405180910390fd5b5b5050565b612c94600760009054906101000a900473ffffffffffffffffffffffffffffffffffffffff168261410c565b600760009054906101000a900473ffffffffffffffffffffffffffffffffffffffff1673ffffffffffffffffffffffffffffffffffffffff167f5691c23761c54f62406d00fa0c93278f1bab9e0ab38abee5ce86d2c33743819c60405160405180910390a25050565b6000806001600084815260200190815260200160002060009054906101000a900473ffffffffffffffffffffffffffffffffffffffff169050600073ffffffffffffffffffffffffffffffffffffffff168173ffffffffffffffffffffffffffffffffffffffff1614151515612d7257600080fd5b80915050919050565b600c544211151515612df5576040517f08c379a00000000000000000000000000000000000000000000000000000000081526004018080602001828103825260168152602001807f41756374696f6e20616c726561647920656e6465642e0000000000000000000081525060200191505060405180910390fd5b601960008381526020019081526020016000206000013390806001815401808255809150509060018203906000526020600020016000909192909190916101000a81548173ffffffffffffffffffffffffffffffffffffffff021916908373ffffffffffffffffffffffffffffffffffffffff16021790555050601960008381526020019081526020016000206001018190806001815401808255809150509060018203906000526020600020016000909192909190915055508060196000848152602001908152602001600020600201540360196000848152602001908152602001600020600201819055508060196000848152602001908152602001600020600301540160196000848152602001908152602001600020600301819055505050565b60008073ffffffffffffffffffffffffffffffffffffffff168273ffffffffffffffffffffffffffffffffffffffff1614151515612f5657600080fd5b612f9d600360008473ffffffffffffffffffffffffffffffffffffffff1673ffffffffffffffffffffffffffffffffffffffff168152602001908152602001600020614251565b9050919050565b612fad3361336c565b1515612fb857600080fd5b612fc18161425f565b50565b60085481565b600760009054906101000a900473ffffffffffffffffffffffffffffffffffffffff1681565b600d60009054906101000a900473ffffffffffffffffffffffffffffffffffffffff1681565b3373ffffffffffffffffffffffffffffffffffffffff168273ffffffffffffffffffffffffffffffffffffffff161415151561305157600080fd5b80600460003373ffffffffffffffffffffffffffffffffffffffff1673ffffffffffffffffffffffffffffffffffffffff16815260200190815260200160002060008473ffffffffffffffffffffffffffffffffffffffff1673ffffffffffffffffffffffffffffffffffffffff16815260200190815260200160002060006101000a81548160ff0219169083151502179055508173ffffffffffffffffffffffffffffffffffffffff163373ffffffffffffffffffffffffffffffffffffffff167f17307eab39ab6107e8899845ad3d59bd9653f200f220920489ca2b5937696c3183604051808215151515815260200191505060405180910390a35050565b6016602052806000526040600020600091509050806000018054600181600116156101000203166002900480601f0160208091040260200160405190810160405280929190818152602001828054600181600116156101000203166002900480156131fe5780601f106131d3576101008083540402835291602001916131fe565b820191906000526020600020905b8154815290600101906020018083116131e157829003601f168201915b505050505090806001018054600181600116156101000203166002900480601f01602080910402602001604051908101604052809291908181526020018280546001816001161561010002031660029004801561329c5780601f106132715761010080835404028352916020019161329c565b820191906000526020600020905b81548152906001019060200180831161327f57829003601f168201915b505050505090806002018054600181600116156101000203166002900480601f01602080910402602001604051908101604052809291908181526020018280546001816001161561010002031660029004801561333a5780601f1061330f5761010080835404028352916020019161333a565b820191906000526020600020905b81548152906001019060200180831161331d57829003601f168201915b5050505050905083565b61334f8484846123c4565b61335b848484846142b9565b151561336657600080fd5b50505050565b6000613382826005613f6f90919063ffffffff16565b9050919050565b3373ffffffffffffffffffffffffffffffffffffffff166013600084815260200190815260200160002060009054906101000a900473ffffffffffffffffffffffffffffffffffffffff1673ffffffffffffffffffffffffffffffffffffffff16141515156133f757600080fd5b600c544211151515613471576040517f08c379a00000000000000000000000000000000000000000000000000000000081526004018080602001828103825260168152602001807f41756374696f6e20616c726561647920656e6465642e0000000000000000000081525060200191505060405180910390fd5b600e54811115156134ea576040517f08c379a000000000000000000000000000000000000000000000000000000000815260040180806020018281038252601e8152602001807f546865726520616c7265616479206973206120686967686572206269642e000081525060200191505060405180910390fd5b6000600e5414151561356857600e5460116000600d60009054906101000a900473ffffffffffffffffffffffffffffffffffffffff1673ffffffffffffffffffffffffffffffffffffffff1673ffffffffffffffffffffffffffffffffffffffff168152602001908152602001600020600082825401925050819055505b33600d60006101000a81548173ffffffffffffffffffffffffffffffffffffffff021916908373ffffffffffffffffffffffffffffffffffffffff16021790555080600e819055507ff4757a49b326036464bec6fe419a4ae38c8a02ce3e68bf0809674f6aab8ad3003382604051808373ffffffffffffffffffffffffffffffffffffffff1673ffffffffffffffffffffffffffffffffffffffff1681526020018281526020019250505060405180910390a15050565b60176020528060005260406000206000915090508060000160009054906101000a900460ff16905081565b600f5481565b600e5481565b61365f33613f15565b565b6014602052806000526040600020600091509050806000018054600181600116156101000203166002900480601f01602080910402602001604051908101604052809291908181526020018280546001816001161561010002031660029004801561370d5780601f106136e25761010080835404028352916020019161370d565b820191906000526020600020905b8154815290600101906020018083116136f057829003601f168201915b505050505090806001018054600181600116156101000203166002900480601f0160208091040260200160405190810160405280929190818152602001828054600181600116156101000203166002900480156137ab5780601f10613780576101008083540402835291602001916137ab565b820191906000526020600020905b81548152906001019060200180831161378e57829003601f168201915b505050505090806002018054600181600116156101000203166002900480601f0160208091040260200160405190810160405280929190818152602001828054600181600116156101000203166002900480156138495780601f1061381e57610100808354040283529160200191613849565b820191906000526020600020905b81548152906001019060200180831161382c57829003601f168201915b5050505050908060030154908060040160009054906101000a900460ff16908060040160019054906101000a900473ffffffffffffffffffffffffffffffffffffffff16905086565b60008073ffffffffffffffffffffffffffffffffffffffff163373ffffffffffffffffffffffffffffffffffffffff16141515156138cf57600080fd5b600115156138dc33612663565b1515141515613953576040517f08c379a000000000000000000000000000000000000000000000000000000000815260040180806020018281038252601c8152602001807f766f7573206e27c3aa746573207061732077686974656c697374c3a90000000081525060200191505060405180910390fd5b3373ffffffffffffffffffffffffffffffffffffffff166013600084815260200190815260200160002060009054906101000a900473ffffffffffffffffffffffffffffffffffffffff1673ffffffffffffffffffffffffffffffffffffffff16141515613a4f576040517f08c379a000000000000000000000000000000000000000000000000000000000815260040180806020018281038252602d8152602001807f766f757320646576657a20c3aa747265206c652070726f707269c3a97461697281526020017f65206465206c27616e696d616c0000000000000000000000000000000000000081525060400191505060405180910390fd5b60016014600084815260200190815260200160002060040160006101000a81548160ff0219169083151502179055506014600083815260200190815260200160002060040160009054906101000a900460ff169050919050565b6000600460008473ffffffffffffffffffffffffffffffffffffffff1673ffffffffffffffffffffffffffffffffffffffff16815260200190815260200160002060008373ffffffffffffffffffffffffffffffffffffffff1673ffffffffffffffffffffffffffffffffffffffff16815260200190815260200160002060009054906101000a900460ff16905092915050565b600073ffffffffffffffffffffffffffffffffffffffff168173ffffffffffffffffffffffffffffffffffffffff1614151515613b7957600080fd5b613b838282613f6f565b151515613b8f57600080fd5b60018260000160008373ffffffffffffffffffffffffffffffffffffffff1673ffffffffffffffffffffffffffffffffffffffff16815260200190815260200160002060006101000a81548160ff0219169083151502179055505050565b6000806001600084815260200190815260200160002060009054906101000a900473ffffffffffffffffffffffffffffffffffffffff169050600073ffffffffffffffffffffffffffffffffffffffff168173ffffffffffffffffffffffffffffffffffffffff161415915050919050565b613c73816006613b3d90919063ffffffff16565b8073ffffffffffffffffffffffffffffffffffffffff167fee1504a83b6d4a361f4c1dc78ab59bfa30d6a3b6612c403e86bb01ef2984295f60405160405180910390a250565b600080613cc583612cfd565b90508073ffffffffffffffffffffffffffffffffffffffff168473ffffffffffffffffffffffffffffffffffffffff161480613d3457508373ffffffffffffffffffffffffffffffffffffffff16613d1c846118be565b73ffffffffffffffffffffffffffffffffffffffff16145b80613d455750613d448185613aa9565b5b91505092915050565b8273ffffffffffffffffffffffffffffffffffffffff16613d6e82612cfd565b73ffffffffffffffffffffffffffffffffffffffff16141515613d9057600080fd5b600073ffffffffffffffffffffffffffffffffffffffff168273ffffffffffffffffffffffffffffffffffffffff1614151515613dcc57600080fd5b613dd5816144dc565b613e1c600360008573ffffffffffffffffffffffffffffffffffffffff1673ffffffffffffffffffffffffffffffffffffffff16815260200190815260200160002061459c565b613e63600360008473ffffffffffffffffffffffffffffffffffffffff1673ffffffffffffffffffffffffffffffffffffffff1681526020019081526020016000206145bf565b816001600083815260200190815260200160002060006101000a81548173ffffffffffffffffffffffffffffffffffffffff021916908373ffffffffffffffffffffffffffffffffffffffff160217905550808273ffffffffffffffffffffffffffffffffffffffff168473ffffffffffffffffffffffffffffffffffffffff167fddf252ad1be2c89b69c2b068fc378daa952ba7f163c4a11628f55a4df523b3ef60405160405180910390a4505050565b613f2981600661400390919063ffffffff16565b8073ffffffffffffffffffffffffffffffffffffffff167f270d9b30cf5b0793bbfd54c9d5b94aeb49462b8148399000265144a8722da6b660405160405180910390a250565b60008073ffffffffffffffffffffffffffffffffffffffff168273ffffffffffffffffffffffffffffffffffffffff1614151515613fac57600080fd5b8260000160008373ffffffffffffffffffffffffffffffffffffffff1673ffffffffffffffffffffffffffffffffffffffff16815260200190815260200160002060009054906101000a900460ff16905092915050565b600073ffffffffffffffffffffffffffffffffffffffff168173ffffffffffffffffffffffffffffffffffffffff161415151561403f57600080fd5b6140498282613f6f565b151561405457600080fd5b60008260000160008373ffffffffffffffffffffffffffffffffffffffff1673ffffffffffffffffffffffffffffffffffffffff16815260200190815260200160002060006101000a81548160ff0219169083151502179055505050565b6140c681600561400390919063ffffffff16565b8073ffffffffffffffffffffffffffffffffffffffff167f0a8eb35e5ca14b3d6f28e4abf2f128dbab231a58b56e89beb5d636115001e16560405160405180910390a250565b8173ffffffffffffffffffffffffffffffffffffffff1661412c82612cfd565b73ffffffffffffffffffffffffffffffffffffffff1614151561414e57600080fd5b614157816144dc565b61419e600360008473ffffffffffffffffffffffffffffffffffffffff1673ffffffffffffffffffffffffffffffffffffffff16815260200190815260200160002061459c565b60006001600083815260200190815260200160002060006101000a81548173ffffffffffffffffffffffffffffffffffffffff021916908373ffffffffffffffffffffffffffffffffffffffff16021790555080600073ffffffffffffffffffffffffffffffffffffffff168373ffffffffffffffffffffffffffffffffffffffff167fddf252ad1be2c89b69c2b068fc378daa952ba7f163c4a11628f55a4df523b3ef60405160405180910390a45050565b600081600001549050919050565b614273816005613b3d90919063ffffffff16565b8073ffffffffffffffffffffffffffffffffffffffff167f22380c05984257a1cb900161c713dd71d39e74820f1aea43bd3f1bdd2096129960405160405180910390a250565b60006142da8473ffffffffffffffffffffffffffffffffffffffff166145d5565b15156142e957600190506144d4565b60008473ffffffffffffffffffffffffffffffffffffffff1663150b7a02338887876040518563ffffffff167c0100000000000000000000000000000000000000000000000000000000028152600401808573ffffffffffffffffffffffffffffffffffffffff1673ffffffffffffffffffffffffffffffffffffffff1681526020018473ffffffffffffffffffffffffffffffffffffffff1673ffffffffffffffffffffffffffffffffffffffff16815260200183815260200180602001828103825283818151815260200191508051906020019080838360005b838110156143e05780820151818401526020810190506143c5565b50505050905090810190601f16801561440d5780820380516001836020036101000a031916815260200191505b5095505050505050602060405180830381600087803b15801561442f57600080fd5b505af1158015614443573d6000803e3d6000fd5b505050506040513d602081101561445957600080fd5b8101908080519060200190929190505050905063150b7a027c0100000000000000000000000000000000000000000000000000000000027bffffffffffffffffffffffffffffffffffffffffffffffffffffffff1916817bffffffffffffffffffffffffffffffffffffffffffffffffffffffff1916149150505b949350505050565b600073ffffffffffffffffffffffffffffffffffffffff166002600083815260200190815260200160002060009054906101000a900473ffffffffffffffffffffffffffffffffffffffff1673ffffffffffffffffffffffffffffffffffffffff161415156145995760006002600083815260200190815260200160002060006101000a81548173ffffffffffffffffffffffffffffffffffffffff021916908373ffffffffffffffffffffffffffffffffffffffff1602179055505b50565b6145b4600182600001546145e890919063ffffffff16565b816000018190555050565b6001816000016000828254019250508190555050565b600080823b905060008111915050919050565b60008282111515156145f957600080fd5b600082840390508091505092915050565b828054600181600116156101000203166002900490600052602060002090601f016020900481019282601f106146435780548555614680565b8280016001018555821561468057600052602060002091601f016020900482015b8281111561467f578254825591600101919060010190614664565b5b50905061468d9190614711565b5090565b828054600181600116156101000203166002900490600052602060002090601f016020900481019282601f106146d257805160ff1916838001178555614700565b82800160010185558215614700579182015b828111156146ff5782518255916020019190600101906146e4565b5b50905061470d9190614711565b5090565b61473391905b8082111561472f576000816000905550600101614717565b5090565b9056fea165627a7a72305820a1ca1827e5b108a07a3c37c3ff59f2416472b4d0944bae0f344346d0a4b27c8f0029",
  "source": "pragma solidity >=0.4.25;\r\nimport \"./Animals.sol\";\r\n\r\n\r\ncontract Fight is Animals {\r\n\r\n    constructor()public{\r\n        // biddingTime=\r\n       //auctionEndTime = now + _biddingTime;\r\n    }\r\n\r\n    struct Bidder{\r\n        address[] parieur;\r\n        uint[] bet;\r\n        uint balance;\r\n        uint stake;\r\n    }\r\n\r\n    mapping(uint256=>Bidder) _registerBidder;\r\n    mapping (uint256 => address) private _tokenOwner;\r\n\r\n    function HasWin(uint256 tokenid1,uint256 tokenid2)public returns(uint256){\r\n        uint256 etablir_un_gagnant;\r\n        return etablir_un_gagnant;\r\n    }\r\n\r\n    function betOnPet(uint256 tokenId, uint bid)public{\r\n        require( now <= auctionEndTime,\"Auction already ended.\");\r\n        _registerBidder[tokenId].parieur.push(msg.sender);\r\n        _registerBidder[tokenId].bet.push(bid);\r\n        _registerBidder[tokenId].balance = _registerBidder[tokenId].balance - bid;\r\n        _registerBidder[tokenId].stake = _registerBidder[tokenId].stake + bid;\r\n\r\n    }\r\n\r\n\r\n    function ToFight(uint256 tokenId, uint256 adverssaire) public{\r\n        require(_tokenOwner[tokenId] == msg.sender,\"vous ne pouvez pas faire combattre un animal qui n'est pas le votre\");\r\n        require(_registerFighting[tokenId].peutcombattre==true,\" votre animal n'est pas inscrit dans le registre de combat\");\r\n        if(_registerFighting[tokenId].level == _registerFighting[adverssaire].level){\r\n            require(_registerFighting[adverssaire].peutcombattre==true,\"vous ne pouvez pas faire combattre un animal qui n'est pas le votre\");\r\n            //return HasWin(tokenId,adverssaire)\r\n        }\r\n    }\r\n\r\n}",
  "sourcePath": "C:/Users/lobes/.vscode/registre/contracts/Fight.sol",
  "compiler": {
    "name": "solc",
    "version": "0.5.0+commit.1d4f565a.Emscripten.clang"
  },
  "schemaVersion": "3.0.3",
  "updatedAt": "2019-03-21T03:15:44.884Z",
  "devdoc": {
    "methods": {
      "approve(address,uint256)": {
        "details": "Approves another address to transfer the given token ID The zero address indicates there is no approved address. There can only be one approved address per token at a given time. Can only be called by the token owner or an approved operator.",
        "params": {
          "to": "address to be approved for the given token ID",
          "tokenId": "uint256 ID of the token to be approved"
        }
      },
      "balanceOf(address)": {
        "details": "Gets the balance of the specified address",
        "params": {
          "owner": "address to query the balance of"
        },
        "return": "uint256 representing the amount owned by the passed address"
      },
      "getApproved(uint256)": {
        "details": "Gets the approved address for a token ID, or zero if no address set Reverts if the token ID does not exist.",
        "params": {
          "tokenId": "uint256 ID of the token to query the approval of"
        },
        "return": "address currently approved for the given token ID"
      },
      "isApprovedForAll(address,address)": {
        "details": "Tells whether an operator is approved by a given owner",
        "params": {
          "operator": "operator address which you want to query the approval of",
          "owner": "owner address which you want to query the approval of"
        },
        "return": "bool whether the given operator is approved by the given owner"
      },
      "ownerOf(uint256)": {
        "details": "Gets the owner of the specified token ID",
        "params": {
          "tokenId": "uint256 ID of the token to query the owner of"
        },
        "return": "address currently marked as the owner of the given token ID"
      },
      "safeTransferFrom(address,address,uint256)": {
        "details": "Safely transfers the ownership of a given token ID to another address If the target address is a contract, it must implement `onERC721Received`, which is called upon a safe transfer, and return the magic value `bytes4(keccak256(\"onERC721Received(address,address,uint256,bytes)\"))`; otherwise, the transfer is reverted. Requires the msg.sender to be the owner, approved, or operator",
        "params": {
          "from": "current owner of the token",
          "to": "address to receive the ownership of the given token ID",
          "tokenId": "uint256 ID of the token to be transferred"
        }
      },
      "safeTransferFrom(address,address,uint256,bytes)": {
        "details": "Safely transfers the ownership of a given token ID to another address If the target address is a contract, it must implement `onERC721Received`, which is called upon a safe transfer, and return the magic value `bytes4(keccak256(\"onERC721Received(address,address,uint256,bytes)\"))`; otherwise, the transfer is reverted. Requires the msg.sender to be the owner, approved, or operator",
        "params": {
          "_data": "bytes data to send along with a safe transfer check",
          "from": "current owner of the token",
          "to": "address to receive the ownership of the given token ID",
          "tokenId": "uint256 ID of the token to be transferred"
        }
      },
      "setApprovalForAll(address,bool)": {
        "details": "Sets or unsets the approval of a given operator An operator is allowed to transfer all tokens of the sender on their behalf",
        "params": {
          "approved": "representing the status of the approval to be set",
          "to": "operator address to set the approval"
        }
      },
      "supportsInterface(bytes4)": {
        "details": "implement supportsInterface(bytes4) using a lookup table"
      },
      "transferFrom(address,address,uint256)": {
        "details": "Transfers the ownership of a given token ID to another address Usage of this method is discouraged, use `safeTransferFrom` whenever possible Requires the msg.sender to be the owner, approved, or operator",
        "params": {
          "from": "current owner of the token",
          "to": "address to receive the ownership of the given token ID",
          "tokenId": "uint256 ID of the token to be transferred"
        }
      }
    }
  },
  "userdoc": {
    "methods": {}
  }
}